{
  "contractName": "Bookmarks",
  "abi": [
    {
      "constant": true,
      "inputs": [],
      "name": "owner",
      "outputs": [
        {
          "name": "",
          "type": "address"
        }
      ],
      "payable": false,
      "stateMutability": "view",
      "type": "function"
    },
    {
      "constant": true,
      "inputs": [
        {
          "name": "",
          "type": "uint256"
        }
      ],
      "name": "entries",
      "outputs": [
        {
          "name": "url",
          "type": "string"
        },
        {
          "name": "name",
          "type": "string"
        }
      ],
      "payable": false,
      "stateMutability": "view",
      "type": "function"
    },
    {
      "inputs": [],
      "payable": false,
      "stateMutability": "nonpayable",
      "type": "constructor"
    },
    {
      "constant": true,
      "inputs": [],
      "name": "getBookmarksCount",
      "outputs": [
        {
          "name": "",
          "type": "uint256"
        }
      ],
      "payable": false,
      "stateMutability": "view",
      "type": "function"
    },
    {
      "constant": true,
      "inputs": [
        {
          "name": "index",
          "type": "uint256"
        }
      ],
      "name": "getBookmarkAt",
      "outputs": [
        {
          "name": "",
          "type": "string"
        },
        {
          "name": "",
          "type": "string"
        }
      ],
      "payable": false,
      "stateMutability": "view",
      "type": "function"
    },
    {
      "constant": false,
      "inputs": [
        {
          "name": "_url",
          "type": "string"
        },
        {
          "name": "_name",
          "type": "string"
        }
      ],
      "name": "addBookmark",
      "outputs": [],
      "payable": false,
      "stateMutability": "nonpayable",
      "type": "function"
    },
    {
      "constant": false,
      "inputs": [
        {
          "name": "index",
          "type": "uint256"
        },
        {
          "name": "_url",
          "type": "string"
        },
        {
          "name": "_name",
          "type": "string"
        }
      ],
      "name": "setBookmark",
      "outputs": [],
      "payable": false,
      "stateMutability": "nonpayable",
      "type": "function"
    },
    {
      "constant": false,
      "inputs": [
        {
          "name": "index",
          "type": "uint256"
        }
      ],
      "name": "removeBookmark",
      "outputs": [],
      "payable": false,
      "stateMutability": "nonpayable",
      "type": "function"
    }
  ],
  "bytecode": "0x608060405234801561001057600080fd5b50336000806101000a81548173ffffffffffffffffffffffffffffffffffffffff021916908373ffffffffffffffffffffffffffffffffffffffff16021790555061105e806100606000396000f3fe608060405260043610610083576000357c0100000000000000000000000000000000000000000000000000000000900463ffffffff1680638c4b1eb0146100885780638da5cb5b146100c3578063a4da0f571461011a578063b1e5425414610145578063b225c27f146102a4578063b30906d4146103c4578063fda828b7146104e4575b600080fd5b34801561009457600080fd5b506100c1600480360360208110156100ab57600080fd5b810190808035906020019092919050505061064d565b005b3480156100cf57600080fd5b506100d8610825565b604051808273ffffffffffffffffffffffffffffffffffffffff1673ffffffffffffffffffffffffffffffffffffffff16815260200191505060405180910390f35b34801561012657600080fd5b5061012f61084a565b6040518082815260200191505060405180910390f35b34801561015157600080fd5b506102a26004803603604081101561016857600080fd5b810190808035906020019064010000000081111561018557600080fd5b82018360208201111561019757600080fd5b803590602001918460018302840111640100000000831117156101b957600080fd5b91908080601f016020809104026020016040519081016040528093929190818152602001838380828437600081840152601f19601f8201169050808301925050505050505091929192908035906020019064010000000081111561021c57600080fd5b82018360208201111561022e57600080fd5b8035906020019184600183028401116401000000008311171561025057600080fd5b91908080601f016020809104026020016040519081016040528093929190818152602001838380828437600081840152601f19601f820116905080830192505050505050509192919290505050610918565b005b3480156102b057600080fd5b506102dd600480360360208110156102c757600080fd5b8101908080359060200190929190505050610a59565b604051808060200180602001838103835285818151815260200191508051906020019080838360005b83811015610321578082015181840152602081019050610306565b50505050905090810190601f16801561034e5780820380516001836020036101000a031916815260200191505b50838103825284818151815260200191508051906020019080838360005b8381101561038757808201518184015260208101905061036c565b50505050905090810190601f1680156103b45780820380516001836020036101000a031916815260200191505b5094505050505060405180910390f35b3480156103d057600080fd5b506103fd600480360360208110156103e757600080fd5b8101908080359060200190929190505050610c8d565b604051808060200180602001838103835285818151815260200191508051906020019080838360005b83811015610441578082015181840152602081019050610426565b50505050905090810190601f16801561046e5780820380516001836020036101000a031916815260200191505b50838103825284818151815260200191508051906020019080838360005b838110156104a757808201518184015260208101905061048c565b50505050905090810190601f1680156104d45780820380516001836020036101000a031916815260200191505b5094505050505060405180910390f35b3480156104f057600080fd5b5061064b6004803603606081101561050757600080fd5b81019080803590602001909291908035906020019064010000000081111561052e57600080fd5b82018360208201111561054057600080fd5b8035906020019184600183028401116401000000008311171561056257600080fd5b91908080601f016020809104026020016040519081016040528093929190818152602001838380828437600081840152601f19601f820116905080830192505050505050509192919290803590602001906401000000008111156105c557600080fd5b8201836020820111156105d757600080fd5b803590602001918460018302840111640100000000831117156105f957600080fd5b91908080601f016020809104026020016040519081016040528093929190818152602001838380828437600081840152601f19601f820116905080830192505050505050509192919290505050610de6565b005b6000809054906101000a900473ffffffffffffffffffffffffffffffffffffffff1673ffffffffffffffffffffffffffffffffffffffff163373ffffffffffffffffffffffffffffffffffffffff16141515610711576040517f08c379a00000000000000000000000000000000000000000000000000000000081526004018080602001828103825260198152602001807f4f6e6c79206f776e65722063616e2063616c6c20746869732e0000000000000081525060200191505060405180910390fd5b60c9548110151561078a576040517f08c379a00000000000000000000000000000000000000000000000000000000081526004018080602001828103825260108152602001807f696e646578206d7573742065786973740000000000000000000000000000000081525060200191505060405180910390fd5b60408051908101604052806020604051908101604052806000815250815260200160206040519081016040528060008152508152506001826064811015156107ce57fe5b6002020160008201518160000190805190602001906107ee929190610f8d565b50602082015181600101908051906020019061080b929190610f8d565b5090505060c9600081548092919060019003919050555050565b6000809054906101000a900473ffffffffffffffffffffffffffffffffffffffff1681565b60008060009054906101000a900473ffffffffffffffffffffffffffffffffffffffff1673ffffffffffffffffffffffffffffffffffffffff163373ffffffffffffffffffffffffffffffffffffffff16141515610910576040517f08c379a00000000000000000000000000000000000000000000000000000000081526004018080602001828103825260198152602001807f4f6e6c79206f776e65722063616e2063616c6c20746869732e0000000000000081525060200191505060405180910390fd5b60c954905090565b6000809054906101000a900473ffffffffffffffffffffffffffffffffffffffff1673ffffffffffffffffffffffffffffffffffffffff163373ffffffffffffffffffffffffffffffffffffffff161415156109dc576040517f08c379a00000000000000000000000000000000000000000000000000000000081526004018080602001828103825260198152602001807f4f6e6c79206f776e65722063616e2063616c6c20746869732e0000000000000081525060200191505060405180910390fd5b604080519081016040528083815260200182815250600160c954606481101515610a0257fe5b600202016000820151816000019080519060200190610a22929190610f8d565b506020820151816001019080519060200190610a3f929190610f8d565b5090505060c9600081548092919060010191905055505050565b6060806000809054906101000a900473ffffffffffffffffffffffffffffffffffffffff1673ffffffffffffffffffffffffffffffffffffffff163373ffffffffffffffffffffffffffffffffffffffff16141515610b20576040517f08c379a00000000000000000000000000000000000000000000000000000000081526004018080602001828103825260198152602001807f4f6e6c79206f776e65722063616e2063616c6c20746869732e0000000000000081525060200191505060405180910390fd5b600183606481101515610b2f57fe5b60020201600001600184606481101515610b4557fe5b60020201600101818054600181600116156101000203166002900480601f016020809104026020016040519081016040528092919081815260200182805460018160011615610100020316600290048015610be15780601f10610bb657610100808354040283529160200191610be1565b820191906000526020600020905b815481529060010190602001808311610bc457829003601f168201915b50505050509150808054600181600116156101000203166002900480601f016020809104026020016040519081016040528092919081815260200182805460018160011615610100020316600290048015610c7d5780601f10610c5257610100808354040283529160200191610c7d565b820191906000526020600020905b815481529060010190602001808311610c6057829003601f168201915b5050505050905091509150915091565b600181606481101515610c9c57fe5b60020201600091509050806000018054600181600116156101000203166002900480601f016020809104026020016040519081016040528092919081815260200182805460018160011615610100020316600290048015610d3e5780601f10610d1357610100808354040283529160200191610d3e565b820191906000526020600020905b815481529060010190602001808311610d2157829003601f168201915b505050505090806001018054600181600116156101000203166002900480601f016020809104026020016040519081016040528092919081815260200182805460018160011615610100020316600290048015610ddc5780601f10610db157610100808354040283529160200191610ddc565b820191906000526020600020905b815481529060010190602001808311610dbf57829003601f168201915b5050505050905082565b6000809054906101000a900473ffffffffffffffffffffffffffffffffffffffff1673ffffffffffffffffffffffffffffffffffffffff163373ffffffffffffffffffffffffffffffffffffffff16141515610eaa576040517f08c379a00000000000000000000000000000000000000000000000000000000081526004018080602001828103825260198152602001807f4f6e6c79206f776e65722063616e2063616c6c20746869732e0000000000000081525060200191505060405180910390fd5b60c95483101515610f23576040517f08c379a00000000000000000000000000000000000000000000000000000000081526004018080602001828103825260108152602001807f696e646578206d7573742065786973740000000000000000000000000000000081525060200191505060405180910390fd5b604080519081016040528083815260200182815250600184606481101515610f4757fe5b600202016000820151816000019080519060200190610f67929190610f8d565b506020820151816001019080519060200190610f84929190610f8d565b50905050505050565b828054600181600116156101000203166002900490600052602060002090601f016020900481019282601f10610fce57805160ff1916838001178555610ffc565b82800160010185558215610ffc579182015b82811115610ffb578251825591602001919060010190610fe0565b5b509050611009919061100d565b5090565b61102f91905b8082111561102b576000816000905550600101611013565b5090565b9056fea165627a7a72305820339232de13f9c56d56d44ef5e7f91ff66cac52461fe9b717045cccb4c415b26a0029",
  "source": "pragma solidity >= 0.5.0;\n\ncontract Bookmarks {\n    address public owner;\n    Entry[100] public entries;\n    uint count;\n\n    struct Entry {\n        string url;\n        string name;\n    }\n\n    constructor() public {\n        owner = msg.sender;\n    }\n\n    modifier restricted() {\n        require(\n            msg.sender == owner,\n            \"Only owner can call this.\"\n        );\n        _;\n    }\n\n    function getBookmarksCount() public view restricted returns (uint) {\n        return count;\n    }\n\n    function getBookmarkAt(uint index) public view restricted returns (string memory, string memory) {\n        return (entries[index].url, entries[index].name);\n    }\n\n    function addBookmark(string memory _url, string memory _name) restricted public {\n        entries[count] = Entry(_url, _name);\n        count++;\n    }\n\n    function setBookmark(uint index, string memory _url, string memory _name) restricted public {\n        require(index < count, \"index must exist\");\n        entries[index] = Entry(_url, _name);\n    }\n\n    function removeBookmark(uint index) restricted public {\n        require(index < count, \"index must exist\");\n        entries[index] = Entry(\"\", \"\");\n        count--;\n    }\n}\n",
  "sourcePath": "/Users/Liam_Xu/Documents/GoogleShare/ProjectDoc/DataMarket/contracts/Bookmarks.sol",
  "compiler": {
    "name": "solc",
    "version": "0.5.0+commit.1d4f565a.Emscripten.clang"
  },
  "schemaVersion": "3.0.1",
  "updatedAt": "2021-12-01T09:40:01.878Z",
  "devdoc": {
    "methods": {}
  },
  "userdoc": {
    "methods": {}
  }
}