{
  "contractName": "Marketplace",
  "abi": [
    {
      "constant": true,
      "inputs": [
        {
          "name": "",
          "type": "address"
        }
      ],
      "name": "allSellers",
      "outputs": [
        {
          "name": "",
          "type": "address"
        }
      ],
      "payable": false,
      "stateMutability": "view",
      "type": "function"
    },
    {
      "constant": true,
      "inputs": [
        {
          "name": "",
          "type": "address"
        }
      ],
      "name": "userAccounts",
      "outputs": [
        {
          "name": "uuid",
          "type": "string"
        }
      ],
      "payable": false,
      "stateMutability": "view",
      "type": "function"
    },
    {
      "constant": true,
      "inputs": [
        {
          "name": "",
          "type": "bytes32"
        }
      ],
      "name": "transactions",
      "outputs": [
        {
          "name": "value",
          "type": "uint256"
        },
        {
          "name": "lastModified",
          "type": "uint256"
        },
        {
          "name": "status",
          "type": "uint8"
        },
        {
          "name": "timeoutHours",
          "type": "uint32"
        },
        {
          "name": "buyer",
          "type": "address"
        },
        {
          "name": "seller",
          "type": "address"
        },
        {
          "name": "moderator",
          "type": "address"
        },
        {
          "name": "txHash",
          "type": "bytes32"
        }
      ],
      "payable": false,
      "stateMutability": "view",
      "type": "function"
    },
    {
      "constant": false,
      "inputs": [],
      "name": "renounceOwnership",
      "outputs": [],
      "payable": false,
      "stateMutability": "nonpayable",
      "type": "function"
    },
    {
      "constant": true,
      "inputs": [],
      "name": "owner",
      "outputs": [
        {
          "name": "",
          "type": "address"
        }
      ],
      "payable": false,
      "stateMutability": "view",
      "type": "function"
    },
    {
      "constant": true,
      "inputs": [],
      "name": "isOwner",
      "outputs": [
        {
          "name": "",
          "type": "bool"
        }
      ],
      "payable": false,
      "stateMutability": "view",
      "type": "function"
    },
    {
      "constant": true,
      "inputs": [
        {
          "name": "",
          "type": "address"
        }
      ],
      "name": "sellerData",
      "outputs": [
        {
          "name": "seller",
          "type": "address"
        },
        {
          "name": "instance",
          "type": "address"
        },
        {
          "name": "info",
          "type": "string"
        }
      ],
      "payable": false,
      "stateMutability": "view",
      "type": "function"
    },
    {
      "constant": false,
      "inputs": [
        {
          "name": "newOwner",
          "type": "address"
        }
      ],
      "name": "transferOwnership",
      "outputs": [],
      "payable": false,
      "stateMutability": "nonpayable",
      "type": "function"
    },
    {
      "inputs": [],
      "payable": false,
      "stateMutability": "nonpayable",
      "type": "constructor"
    },
    {
      "anonymous": false,
      "inputs": [
        {
          "indexed": true,
          "name": "scriptHash",
          "type": "bytes32"
        },
        {
          "indexed": true,
          "name": "from",
          "type": "address"
        },
        {
          "indexed": false,
          "name": "value",
          "type": "uint256"
        }
      ],
      "name": "Funded",
      "type": "event"
    },
    {
      "anonymous": false,
      "inputs": [
        {
          "indexed": true,
          "name": "scriptHash",
          "type": "bytes32"
        },
        {
          "indexed": true,
          "name": "to",
          "type": "address"
        },
        {
          "indexed": false,
          "name": "txHash",
          "type": "bytes32"
        }
      ],
      "name": "Fulfilled",
      "type": "event"
    },
    {
      "anonymous": false,
      "inputs": [
        {
          "indexed": true,
          "name": "scriptHash",
          "type": "bytes32"
        },
        {
          "indexed": false,
          "name": "destination",
          "type": "address"
        },
        {
          "indexed": false,
          "name": "amount",
          "type": "uint256"
        }
      ],
      "name": "Executed",
      "type": "event"
    },
    {
      "anonymous": false,
      "inputs": [
        {
          "indexed": true,
          "name": "previousOwner",
          "type": "address"
        },
        {
          "indexed": true,
          "name": "newOwner",
          "type": "address"
        }
      ],
      "name": "OwnershipTransferred",
      "type": "event"
    },
    {
      "constant": false,
      "inputs": [
        {
          "name": "user",
          "type": "address"
        },
        {
          "name": "uuid",
          "type": "string"
        }
      ],
      "name": "registerUser",
      "outputs": [],
      "payable": false,
      "stateMutability": "nonpayable",
      "type": "function"
    },
    {
      "constant": false,
      "inputs": [
        {
          "name": "seller",
          "type": "address"
        },
        {
          "name": "info",
          "type": "string"
        }
      ],
      "name": "registerShop",
      "outputs": [],
      "payable": false,
      "stateMutability": "nonpayable",
      "type": "function"
    },
    {
      "constant": false,
      "inputs": [
        {
          "name": "seller",
          "type": "address"
        }
      ],
      "name": "removeShop",
      "outputs": [],
      "payable": false,
      "stateMutability": "nonpayable",
      "type": "function"
    },
    {
      "constant": false,
      "inputs": [
        {
          "name": "seller",
          "type": "address"
        },
        {
          "name": "mamRoot",
          "type": "string"
        }
      ],
      "name": "purchaseData",
      "outputs": [
        {
          "name": "",
          "type": "bytes32"
        }
      ],
      "payable": true,
      "stateMutability": "payable",
      "type": "function"
    },
    {
      "constant": false,
      "inputs": [
        {
          "name": "seller",
          "type": "address"
        },
        {
          "name": "time",
          "type": "uint256"
        }
      ],
      "name": "subscribeShop",
      "outputs": [],
      "payable": true,
      "stateMutability": "payable",
      "type": "function"
    },
    {
      "constant": false,
      "inputs": [
        {
          "name": "seller",
          "type": "address"
        },
        {
          "name": "mamRoot",
          "type": "string"
        }
      ],
      "name": "purchaseBySubscription",
      "outputs": [],
      "payable": false,
      "stateMutability": "nonpayable",
      "type": "function"
    },
    {
      "constant": false,
      "inputs": [
        {
          "name": "sigV",
          "type": "uint8[]"
        },
        {
          "name": "sigR",
          "type": "bytes32[]"
        },
        {
          "name": "sigS",
          "type": "bytes32[]"
        },
        {
          "name": "buyer",
          "type": "address"
        },
        {
          "name": "scriptHash",
          "type": "bytes32"
        },
        {
          "name": "txHash",
          "type": "bytes32"
        }
      ],
      "name": "fulfillPurchase",
      "outputs": [],
      "payable": false,
      "stateMutability": "nonpayable",
      "type": "function"
    },
    {
      "constant": false,
      "inputs": [
        {
          "name": "buyer",
          "type": "address"
        },
        {
          "name": "seller",
          "type": "address"
        },
        {
          "name": "scriptHash",
          "type": "bytes32"
        }
      ],
      "name": "suspendTransaction",
      "outputs": [],
      "payable": false,
      "stateMutability": "nonpayable",
      "type": "function"
    },
    {
      "constant": false,
      "inputs": [
        {
          "name": "buyer",
          "type": "address"
        },
        {
          "name": "seller",
          "type": "address"
        },
        {
          "name": "scriptHash",
          "type": "bytes32"
        }
      ],
      "name": "revertTransaction",
      "outputs": [],
      "payable": false,
      "stateMutability": "nonpayable",
      "type": "function"
    },
    {
      "constant": false,
      "inputs": [
        {
          "name": "sigV",
          "type": "uint8[]"
        },
        {
          "name": "sigR",
          "type": "bytes32[]"
        },
        {
          "name": "sigS",
          "type": "bytes32[]"
        },
        {
          "name": "scriptHash",
          "type": "bytes32"
        },
        {
          "name": "destination",
          "type": "address"
        },
        {
          "name": "amount",
          "type": "uint256"
        }
      ],
      "name": "execute",
      "outputs": [],
      "payable": false,
      "stateMutability": "nonpayable",
      "type": "function"
    }
  ],
  "bytecode": "0x608060405234801561001057600080fd5b5060008054600160a060020a0319163317808255604051600160a060020a039190911691907f8be0079c531659141344cd1fd0a4f28419497f9722a3daafe3b4186f6b6457e0908290a36151f4806100696000396000f3fe608060405260043610620001265760003560e060020a9004806380bf839e11620000a75780639841823b11620000715780639841823b146200063c578063a522527e1462000720578063d8ddb5c0146200074f578063f2219be51462000928578063f2fde38b1462000b015762000126565b806380bf839e14620004d05780638441395a14620005645780638da5cb5b14620005f85780638f32d59b14620006105762000126565b8063642f2eaf11620000f5578063642f2eaf146200030a578063642f314414620003a25780636b9df0ad14620003d95780636e4ae5d41462000471578063715018a614620004b85762000126565b80630ea126f9146200012b5780632c4464e414620001c15780633cf00da814620002145780635251d91c146200025b575b600080fd5b3480156200013857600080fd5b50620001bf600480360360408110156200015157600080fd5b600160a060020a0382351691908101906040810160208201356401000000008111156200017d57600080fd5b8201836020820111156200019057600080fd5b80359060200191846001830284011164010000000083111715620001b357600080fd5b50909250905062000b38565b005b348015620001ce57600080fd5b50620001f860048036036020811015620001e757600080fd5b5035600160a060020a031662000d23565b60408051600160a060020a039092168252519081900360200190f35b3480156200022157600080fd5b50620001bf600480360360608110156200023a57600080fd5b50600160a060020a0381358116916020810135909116906040013562000d3e565b3480156200026857600080fd5b5062000292600480360360208110156200028157600080fd5b5035600160a060020a031662000eef565b6040805160208082528351818301528351919283929083019185019080838360005b83811015620002ce578181015183820152602001620002b4565b50505050905090810190601f168015620002fc5780820380516001836020036101000a031916815260200191505b509250505060405180910390f35b3480156200031757600080fd5b5062000338600480360360208110156200033057600080fd5b503562000f94565b604051808981526020018881526020018760048111156200035557fe5b60ff16815263ffffffff909616602087015250600160a060020a0393841660408087019190915292841660608601529216608084015260a0830191909152519081900360c0019350915050f35b348015620003af57600080fd5b50620001bf60048036036020811015620003c857600080fd5b5035600160a060020a031662000ff3565b6200045f60048036036040811015620003f157600080fd5b600160a060020a0382351691908101906040810160208201356401000000008111156200041d57600080fd5b8201836020820111156200043057600080fd5b803590602001918460018302840111640100000000831117156200045357600080fd5b509092509050620011e8565b60408051918252519081900360200190f35b3480156200047e57600080fd5b50620001bf600480360360608110156200049757600080fd5b50600160a060020a03813581169160208101359091169060400135620013e3565b348015620004c557600080fd5b50620001bf62001591565b348015620004dd57600080fd5b50620001bf60048036036040811015620004f657600080fd5b600160a060020a0382351691908101906040810160208201356401000000008111156200052257600080fd5b8201836020820111156200053557600080fd5b803590602001918460018302840111640100000000831117156200055857600080fd5b5090925090506200162b565b3480156200057157600080fd5b50620001bf600480360360408110156200058a57600080fd5b600160a060020a038235169190810190604081016020820135640100000000811115620005b657600080fd5b820183602082011115620005c957600080fd5b80359060200191846001830284011164010000000083111715620005ec57600080fd5b509092509050620018c8565b3480156200060557600080fd5b50620001f862001ab3565b3480156200061d57600080fd5b506200062862001ac3565b604080519115158252519081900360200190f35b3480156200064957600080fd5b5062000673600480360360208110156200066257600080fd5b5035600160a060020a031662001ad4565b6040518084600160a060020a0316600160a060020a0316815260200183600160a060020a0316600160a060020a0316815260200180602001828103825283818151815260200191508051906020019080838360005b83811015620006e2578181015183820152602001620006c8565b50505050905090810190601f168015620007105780820380516001836020036101000a031916815260200191505b5094505050505060405180910390f35b620001bf600480360360408110156200073857600080fd5b50600160a060020a03813516906020013562001b8f565b3480156200075c57600080fd5b50620001bf600480360360c08110156200077557600080fd5b8101906020810181356401000000008111156200079157600080fd5b820183602082011115620007a457600080fd5b80359060200191846020830284011164010000000083111715620007c757600080fd5b91908080602002602001604051908101604052809392919081815260200183836020028082843760009201919091525092959493602081019350359150506401000000008111156200081857600080fd5b8201836020820111156200082b57600080fd5b803590602001918460208302840111640100000000831117156200084e57600080fd5b91908080602002602001604051908101604052809392919081815260200183836020028082843760009201919091525092959493602081019350359150506401000000008111156200089f57600080fd5b820183602082011115620008b257600080fd5b80359060200191846020830284011164010000000083111715620008d557600080fd5b91908080602002602001604051908101604052809392919081815260200183836020028082843760009201919091525092955050600160a060020a03833516935050506020810135906040013562001d1b565b3480156200093557600080fd5b50620001bf600480360360c08110156200094e57600080fd5b8101906020810181356401000000008111156200096a57600080fd5b8201836020820111156200097d57600080fd5b80359060200191846020830284011164010000000083111715620009a057600080fd5b9190808060200260200160405190810160405280939291908181526020018383602002808284376000920191909152509295949360208101935035915050640100000000811115620009f157600080fd5b82018360208201111562000a0457600080fd5b8035906020019184602083028401116401000000008311171562000a2757600080fd5b919080806020026020016040519081016040528093929190818152602001838360200280828437600092019190915250929594936020810193503591505064010000000081111562000a7857600080fd5b82018360208201111562000a8b57600080fd5b8035906020019184602083028401116401000000008311171562000aae57600080fd5b919080806020026020016040519081016040528093929190818152602001838360200280828437600092019190915250929550508235935050506020810135600160a060020a0316906040013562001fae565b34801562000b0e57600080fd5b50620001bf6004803603602081101562000b2757600080fd5b5035600160a060020a0316620021c0565b62000b4262001ac3565b151562000b88576040805160e560020a62461bcd028152602060048201819052602482015260008051602062005111833981519152604482015290519081900360640190fd5b82600160a060020a038116151562000bd9576040805160e560020a62461bcd028152602060048201526013602482015260008051602062004fc8833981519152604482015290519081900360640190fd5b600160a060020a0384166000908152600360205260409020548490600260001961010060018416150201909116041562000c5d576040805160e560020a62461bcd02815260206004820152601360248201527f5573657220686173207265676973746572656400000000000000000000000000604482015290519081900360640190fd5b606084848080601f01602080910402602001604051908101604052809392919081815260200183838082843760009201919091525050825192935050601a909114905062000cf5576040805160e560020a62461bcd02815260206004820152601a60248201527f55756964206c656e67746820646f6573206e6f74206d61746368000000000000604482015290519081900360640190fd5b600160a060020a038616600090815260036020526040902062000d1a90868662002eca565b50505050505050565b600160205260009081526040902054600160a060020a031681565b6000818152600460205260409020548190151562000d95576040805160e560020a62461bcd02815260206004820152601a6024820152600080516020620050d0833981519152604482015290519081900360640190fd5b600082815260046020819052604090912090810154600160a060020a0316331462000e0a576040805160e560020a62461bcd02815260206004820152601860248201527f4f7065726174696f6e206973206e6f7420616c6c6f7765640000000000000000604482015290519081900360640190fd5b6002810154600160a060020a03868116650100000000009092041614801562000e4257506003810154600160a060020a038581169116145b151562000e845760405160e560020a62461bcd02815260040180806020018281038252602f81526020018062004fe8602f913960400191505060405180910390fd5b60028082015460ff16600481111562000e9957fe5b141562000edb5760405160e560020a62461bcd0281526004018080602001828103825260278152602001806200515b6027913960400191505060405180910390fd5b600201805460ff1916600317905550505050565b60036020908152600091825260409182902080548351601f6002600019610100600186161502019093169290920491820184900484028101840190945280845290929183919083018282801562000f8a5780601f1062000f5e5761010080835404028352916020019162000f8a565b820191906000526020600020905b81548152906001019060200180831162000f6c57829003601f168201915b5050505050905081565b60046020819052600091825260409091208054600182015460028301546003840154948401546007909401549294919360ff82169363ffffffff61010084041693600160a060020a036501000000000090940484169390811692169088565b62000ffd62001ac3565b151562001043576040805160e560020a62461bcd028152602060048201819052602482015260008051602062005111833981519152604482015290519081900360640190fd5b80600160a060020a038116151562001094576040805160e560020a62461bcd028152602060048201526013602482015260008051602062004fc8833981519152604482015290519081900360640190fd5b600160a060020a0380831660009081526002602052604090206001015483911615156200110b576040805160e560020a62461bcd02815260206004820152601360248201527f53686f7020646f6573206e6f7420657869737400000000000000000000000000604482015290519081900360640190fd5b600160a060020a038084166000908152600260205260408082206001015481517f41c0e1b500000000000000000000000000000000000000000000000000000000815291519316926341c0e1b59260048084019391929182900301818387803b1580156200117857600080fd5b505af11580156200118d573d6000803e3d6000fd5b505050506200119c836200221e565b600160a060020a038316600090815260026020819052604082208054600160a060020a0319908116825560018201805490911690559190620011e19083018262002f4f565b5050505050565b3360008181526003602052604081205490919060026000196101006001841615020190911604821062001254576040805160e560020a62461bcd028152602060048201526013602482015260008051602062004f55833981519152604482015290519081900360640190fd5b84600160a060020a0381161515620012a5576040805160e560020a62461bcd028152602060048201526013602482015260008051602062004fc8833981519152604482015290519081900360640190fd5b60306000620012c13389620012b962001ab3565b8534620022e3565b600160a060020a03808a16600090815260026020526040908190206001015490517f770ee29a0000000000000000000000000000000000000000000000000000000081523360048201818152346044840181905260648401879052608060248501908152608485018e9052969750939094169463770ee29a9491938d938d93919289929160a401868680828437600081840152601f19601f8201169050808301925050509650505050505050600060405180830381600087803b1580156200138857600080fd5b505af11580156200139d573d6000803e3d6000fd5b50506040805134815290513393508492507fce7089d0668849fb9ca29778c0cbf1e764d9efb048d81fd71fb34c94f26db3689181900360200190a3979650505050505050565b620013ed62001ac3565b151562001433576040805160e560020a62461bcd028152602060048201819052602482015260008051602062005111833981519152604482015290519081900360640190fd5b600081815260046020526040902054819015156200148a576040805160e560020a62461bcd02815260206004820152601a6024820152600080516020620050d0833981519152604482015290519081900360640190fd5b60008281526004602052604090206002810154600160a060020a038681166501000000000090920416148015620014d057506003810154600160a060020a038581169116145b1515620015125760405160e560020a62461bcd02815260040180806020018281038252602f81526020018062004fe8602f913960400191505060405180910390fd5b6003600282015460ff1660048111156200152857fe5b14620015695760405160e560020a62461bcd02815260040180806020018281038252602781526020018062004f2e6027913960400191505060405180910390fd5b60028101805460ff191660041790558054620015899084908790620026cc565b505050505050565b6200159b62001ac3565b1515620015e1576040805160e560020a62461bcd028152602060048201819052602482015260008051602062005111833981519152604482015290519081900360640190fd5b60008054604051600160a060020a03909116907f8be0079c531659141344cd1fd0a4f28419497f9722a3daafe3b4186f6b6457e0908390a360008054600160a060020a0319169055565b6200163562001ac3565b15156200167b576040805160e560020a62461bcd028152602060048201819052602482015260008051602062005111833981519152604482015290519081900360640190fd5b82600160a060020a0381161515620016cc576040805160e560020a62461bcd028152602060048201526013602482015260008051602062004fc8833981519152604482015290519081900360640190fd5b600160a060020a0384166000908152600360205260408120548591600260001961010060018516150201909216919091041162001742576040805160e560020a62461bcd028152602060048201526013602482015260008051602062004f55833981519152604482015290519081900360640190fd5b600160a060020a0380861660009081526002602052604090206001015486911615620017b8576040805160e560020a62461bcd02815260206004820152600b60248201527f53686f7020657869737473000000000000000000000000000000000000000000604482015290519081900360640190fd5b620017c38662002829565b60606040519081016040528087600160a060020a0316815260200187620017e962002f97565b600160a060020a03909116815260405190819003602001906000f08015801562001817573d6000803e3d6000fd5b50600160a060020a0316815260200186868080601f0160208091040260200160405190810160405280939291908181526020018383808284376000920182905250939094525050600160a060020a03808a1682526002602081815260409384902086518154908516600160a060020a03199182161782558783015160018301805491909616911617909355928501518051929450620018bd939185019291019062002fa8565b505050505050505050565b33600081815260036020526040812054600260001961010060018416150201909116041162001930576040805160e560020a62461bcd028152602060048201526013602482015260008051602062004f55833981519152604482015290519081900360640190fd5b83600160a060020a038116151562001981576040805160e560020a62461bcd028152602060048201526013602482015260008051602062004fc8833981519152604482015290519081900360640190fd5b603060006200199e33886200199562001ab3565b856000620022e3565b600160a060020a03808916600090815260026020526040908190206001015490517fa86f183d000000000000000000000000000000000000000000000000000000008152336004820181815260448301869052606060248401908152606484018c9052959650929093169363a86f183d93928b928b92889291608401858580828437600081840152601f19601f82011690508083019250505095505050505050600060405180830381600087803b15801562001a5957600080fd5b505af115801562001a6e573d6000803e3d6000fd5b5050604080516000815290513393508492507fce7089d0668849fb9ca29778c0cbf1e764d9efb048d81fd71fb34c94f26db3689181900360200190a350505050505050565b600054600160a060020a03165b90565b600054600160a060020a0316331490565b600260208181526000928352604092839020805460018083015483860180548851601f60001995831615610100029590950190911697909704928301869004860287018601909752818652600160a060020a0392831696921694929383018282801562001b855780601f1062001b595761010080835404028352916020019162001b85565b820191906000526020600020905b81548152906001019060200180831162001b6757829003601f168201915b5050505050905083565b33600081815260036020526040812054600260001961010060018416150201909116041162001bf7576040805160e560020a62461bcd028152602060048201526013602482015260008051602062004f55833981519152604482015290519081900360640190fd5b82600160a060020a038116151562001c48576040805160e560020a62461bcd028152602060048201526013602482015260008051602062004fc8833981519152604482015290519081900360640190fd5b6030600062001c5c3387620012b962001ab3565b600160a060020a038088166000908152600260205260408082206001015481517f22d4a175000000000000000000000000000000000000000000000000000000008152336004820152602481018b90523460448201529151949550909216926322d4a17592606480820193929182900301818387803b15801562001cdf57600080fd5b505af115801562001cf4573d6000803e3d6000fd5b505050600091825250600460205260409020600201805460ff191660011790555050505050565b6000828152600460205260409020548290151562001d72576040805160e560020a62461bcd02815260206004820152601a6024820152600080516020620050d0833981519152604482015290519081900360640190fd5b826000808281526004602081905260409091206002015460ff169081111562001d9757fe5b1462001dd85760405160e560020a62461bcd028152600401808060200182810382526022815260200180620050176022913960400191505060405180910390fd5b600033600160a060020a0316638da5cb5b6040518163ffffffff1660e060020a02815260040160206040518083038186803b15801562001e1757600080fd5b505afa15801562001e2c573d6000803e3d6000fd5b505050506040513d602081101562001e4357600080fd5b5051600086815260046020526040902060030154909150600160a060020a0380831691161462001ea85760405160e560020a62461bcd028152600401808060200182810382526022815260200180620051a76022913960400191505060405180910390fd5b600085815260046020526040902060020154600160a060020a0387811665010000000000909204161462001f115760405160e560020a62461bcd02815260040180806020018281038252602a81526020018062005131602a913960400191505060405180910390fd5b62001f378989898885600460008c8152602001908152602001600020600001546200288a565b60008581526004602090815260409182902060028101805460ff19166001908117909155600782018890554291015581518681529151600160a060020a0389169288927f8f149475f3a8495b4c0809ad25d4b3688abde25bf3743709612292fde5d42b4c92918290030190a3505050505050505050565b6000838152600460205260409020548390151562002005576040805160e560020a62461bcd02815260206004820152601a6024820152600080516020620050d0833981519152604482015290519081900360640190fd5b83600160008281526004602081905260409091206002015460ff16908111156200202b57fe5b146200206c5760405160e560020a62461bcd028152600401808060200182810382526025815260200180620051826025913960400191505060405180910390fd5b83600160a060020a0381161515620020bd576040805160e560020a62461bcd028152602060048201526013602482015260008051602062004fc8833981519152604482015290519081900360640190fd5b6000868152600460205260409020548414620020d857600080fd5b620020e889898989898962002b59565b60008681526004602052604081206002808201805460ff1916909117905542600190910155841115620021725760008681526004602052604090205462002131878787620026cc565b14620021725760405160e560020a62461bcd0281526004018080602001828103825260418152602001806200508f6041913960600191505060405180910390fd5b60408051600160a060020a038716815260208101869052815188927f3ebd008f401abae5d95b2b8fb3708fcf36c816b62e3a289358e61a0bf1e8b0d5928290030190a2505050505050505050565b620021ca62001ac3565b151562002210576040805160e560020a62461bcd028152602060048201819052602482015260008051602062005111833981519152604482015290519081900360640190fd5b6200221b8162002c2d565b50565b600080805260016020527fa6eef7e35abe7026729641147f7915573c7e97b47efa546f5f6e3230263bcb4954600160a060020a0316905b600160a060020a03821615620022de5782600160a060020a031682600160a060020a03161415620022bb57600160a060020a0380831660009081526001602052604080822054848416835291208054600160a060020a03191691909216179055620022de565b50600160a060020a03808216600090815260016020526040902054169062002255565b505050565b600085600160a060020a038116151562002336576040805160e560020a62461bcd028152602060048201526013602482015260008051602062004fc8833981519152604482015290519081900360640190fd5b85600160a060020a038116151562002387576040805160e560020a62461bcd028152602060048201526013602482015260008051602062004fc8833981519152604482015290519081900360640190fd5b600160a060020a038881169088161415620023ec576040805160e560020a62461bcd02815260206004820152601960248201527f427579657220616e642073656c6c6572206172652073616d6500000000000000604482015290519081900360640190fd5b600062002400898989898960055462002cd4565b6000818152600460205260409020549091501562002468576040805160e560020a62461bcd02815260206004820152601160248201527f5472616e73616374696f6e206578697374000000000000000000000000000000604482015290519081900360640190fd5b6040805161010081018252868152426020820152908101600081526020018763ffffffff1681526020018a600160a060020a0316815260200189600160a060020a0316815260200188600160a060020a03168152602001600060010281525060046000838152602001908152602001600020600082015181600001556020820151816001015560408201518160020160006101000a81548160ff021916908360048111156200251357fe5b021790555060608201516002820180546080850151600160a060020a03908116650100000000000278ffffffffffffffffffffffffffffffffffffffff00000000001963ffffffff9095166101000264ffffffff0019909316929092179390931617905560a0830151600383018054918316600160a060020a031992831617905560c084015160048085018054928516929093169190911790915560e0909301516007909201919091556000838152602092835260408082208c84168352600501909352828120805460ff1990811660019081179092558d84168352848320805490911690911790559089168152205460ff1615620026475760405160e560020a62461bcd02815260040180806020018281038252602d81526020018062004f9b602d913960400191505060405180910390fd5b6000818152600460209081526040808320600160a060020a03808c16855260059182018452828520805460ff191660019081179091558e821686526003855283862081018054808301825590875285872001879055908d1685529184208201805480840182559085529290932090910183905581540190559250505095945050505050565b600082600160a060020a03811615156200271f576040805160e560020a62461bcd028152602060048201526013602482015260008051602062004fc8833981519152604482015290519081900360640190fd5b6000858152600460209081526040808320600160a060020a03881684526005810190925282205490919060ff1615156200278e5760405160e560020a62461bcd02815260040180806020018281038252602c81526020018062005039602c913960400191505060405180910390fd5b60008511620027d25760405160e560020a62461bcd02815260040180806020018281038252602a81526020018062005065602a913960400191505060405180910390fd5b620027e4818663ffffffff62002d4e16565b604051909150600160a060020a0387169086156108fc029087906000818181858888f193505050501580156200281e573d6000803e3d6000fd5b509695505050505050565b60016020527fa6eef7e35abe7026729641147f7915573c7e97b47efa546f5f6e3230263bcb498054600160a060020a03928316600081815260408120805495909316600160a060020a03199586161790925590805281549092169091179055565b604080517f19000000000000000000000000000000000000000000000000000000000000006020808301919091526000602183018190526c01000000000000000000000000308102602285015260368401889052600160a060020a038716026056840152606a80840186905284518085039091018152608a840185528051908301207f19457468657265756d205369676e6564204d6573736167653a0a33320000000060aa85015260c6808501919091528451808503909101815260e69093019093528151910120905b865181101562002b4f5760006001838a848151811015156200297257fe5b906020019060200201518a858151811015156200298b57fe5b906020019060200201518a86815181101515620029a457fe5b9060200190602002015160405160008152602001604052604051808581526020018460ff1660ff1681526020018381526020018281526020019450505050506020604051602081039080840390855afa15801562002a06573d6000803e3d6000fd5b505060408051601f190151600089815260046020908152838220600160a060020a03841683526005019052919091205490925060ff161515905062002a95576040805160e560020a62461bcd02815260206004820152601160248201527f496e76616c6964207369676e6174757265000000000000000000000000000000604482015290519081900360640190fd5b6000868152600460209081526040808320600160a060020a038516845260060190915290205460ff161562002b14576040805160e560020a62461bcd02815260206004820152601960248201527f53616d65207369676e61747572652073656e7420747769636500000000000000604482015290519081900360640190fd5b6000868152600460209081526040808320600160a060020a0390941683526006909301905220805460ff191660019081179091550162002954565b5050505050505050565b60008381526004602090815260408083206003810154600160a060020a0316845260060190915290205460ff16151562002bdd576040805160e560020a62461bcd02815260206004820152601360248201527f53656c6c657220646964206e6f74207369676e00000000000000000000000000604482015290519081900360640190fd5b6000838152600460205260408120600281015460019091015462002c0d91610100900463ffffffff169062002db5565b9050801562002c1d575062001589565b62000d1a8787878787876200288a565b600160a060020a038116151562002c795760405160e560020a62461bcd02815260040180806020018281038252602681526020018062004f756026913960400191505060405180910390fd5b60008054604051600160a060020a03808516939216917f8be0079c531659141344cd1fd0a4f28419497f9722a3daafe3b4186f6b6457e091a360008054600160a060020a031916600160a060020a0392909216919091179055565b60408051600160a060020a039788166c010000000000000000000000009081026020808401919091529789168102603483015295909716909402604887015263ffffffff9290921660e060020a02605c86015260608501526080808501919091528151808503909101815260a09093019052815191012090565b60008282018381101562002dac576040805160e560020a62461bcd02815260206004820152601b60248201527f536166654d6174683a206164646974696f6e206f766572666c6f770000000000604482015290519081900360640190fd5b90505b92915050565b60008062002dca428463ffffffff62002e0416565b905063ffffffff84161562002df95762002df163ffffffff80861690610e109062002e6516565b811162002dfc565b60005b949350505050565b60008282111562002e5f576040805160e560020a62461bcd02815260206004820152601e60248201527f536166654d6174683a207375627472616374696f6e206f766572666c6f770000604482015290519081900360640190fd5b50900390565b600082151562002e785750600062002daf565b82820282848281151562002e8857fe5b041462002dac5760405160e560020a62461bcd028152600401808060200182810382526021815260200180620050f06021913960400191505060405180910390fd5b828054600181600116156101000203166002900490600052602060002090601f016020900481019282601f1062002f0d5782800160ff1982351617855562002f3d565b8280016001018555821562002f3d579182015b8281111562002f3d57823582559160200191906001019062002f20565b5062002f4b9291506200301b565b5090565b50805460018160011615610100020316600290046000825580601f1062002f7757506200221b565b601f0160209004906000526020600020908101906200221b91906200301b565b604051611ef5806200303983390190565b828054600181600116156101000203166002900490600052602060002090601f016020900481019282601f1062002feb57805160ff191683800117855562002f3d565b8280016001018555821562002f3d579182015b8281111562002f3d57825182559160200191906001019062002ffe565b62001ac091905b8082111562002f4b57600081556001016200302256fe6080604052610e106004556005805460ff191690553480156200002157600080fd5b5060405160208062001ef5833981018060405260208110156200004357600080fd5b505160008054600160a060020a0319163317808255604051600160a060020a0391909116919060008051602062001ed5833981519152908290a36200009181640100000000620000aa810204565b5060018054600160a060020a0319163317905562000200565b620000bd64010000000062000142810204565b15156200012b57604080517f08c379a000000000000000000000000000000000000000000000000000000000815260206004820181905260248201527f4f776e61626c653a2063616c6c6572206973206e6f7420746865206f776e6572604482015290519081900360640190fd5b6200013f8164010000000062000153810204565b50565b600054600160a060020a0316331490565b600160a060020a0381161515620001b6576040517f08c379a000000000000000000000000000000000000000000000000000000000815260040180806020018281038252602681526020018062001eaf6026913960400191505060405180910390fd5b60008054604051600160a060020a038085169392169160008051602062001ed583398151915291a360008054600160a060020a031916600160a060020a0392909216919091179055565b611c9f80620002106000396000f3fe608060405234801561001057600080fd5b5060043610610175576000357c010000000000000000000000000000000000000000000000000000000090048063770ee29a116100e0578063af4a74cf11610099578063af4a74cf1461073a578063bddbb0231461083c578063bee1c16c14610969578063cfbff06914610971578063e2883b7614610a17578063f2fde38b14610a3457610175565b8063770ee29a146104f357806383aa7718146105ae5780638da5cb5b146105b65780638f32d59b146105be578063a86f183d146105da578063a8d76ebd1461069257610175565b806341c0e1b51161013257806341c0e1b5146102db57806341f74884146102e357806347445bb91461030057806356e4b68b146104bf578063581b7dc8146104e3578063715018a6146104eb57610175565b80630178fe3f1461017a578063046868e71461027557806306a00a091461028f57806322d4a175146102995780632e829852146102cb5780633c6a7f9b146102d3575b600080fd5b6101976004803603602081101561019057600080fd5b5035610a5a565b604051808060200180602001838103835285818151815260200191508051906020019080838360005b838110156101d85781810151838201526020016101c0565b50505050905090810190601f1680156102055780820380516001836020036101000a031916815260200191505b50838103825284518152845160209182019186019080838360005b83811015610238578181015183820152602001610220565b50505050905090810190601f1680156102655780820380516001836020036101000a031916815260200191505b5094505050505060405180910390f35b61027d610bd0565b60408051918252519081900360200190f35b610297610bd6565b005b610297600480360360608110156102af57600080fd5b50600160a060020a038135169060208101359060400135610c2e565b610297610d1a565b61027d610d75565b610297610d7b565b610297600480360360208110156102f957600080fd5b5035610da7565b610297600480360360c081101561031657600080fd5b81019060208101813564010000000081111561033157600080fd5b82018360208201111561034357600080fd5b8035906020019184602083028401116401000000008311171561036557600080fd5b91908080602002602001604051908101604052809392919081815260200183836020028082843760009201919091525092959493602081019350359150506401000000008111156103b557600080fd5b8201836020820111156103c757600080fd5b803590602001918460208302840111640100000000831117156103e957600080fd5b919080806020026020016040519081016040528093929190818152602001838360200280828437600092019190915250929594936020810193503591505064010000000081111561043957600080fd5b82018360208201111561044b57600080fd5b8035906020019184602083028401116401000000008311171561046d57600080fd5b91908080602002602001604051908101604052809392919081815260200183836020028082843760009201919091525092955050600160a060020a038335169350505060208101359060400135610df8565b6104c7610fb5565b60408051600160a060020a039092168252519081900360200190f35b61027d610fc4565b610297610fcb565b6102976004803603608081101561050957600080fd5b600160a060020a03823516919081019060408101602082013564010000000081111561053457600080fd5b82018360208201111561054657600080fd5b8035906020019184600183028401116401000000008311171561056857600080fd5b91908080601f016020809104026020016040519081016040528093929190818152602001838380828437600092019190915250929550508235935050506020013561106e565b61027d61120b565b6104c7611211565b6105c6611220565b604080519115158252519081900360200190f35b610297600480360360608110156105f057600080fd5b600160a060020a03823516919081019060408101602082013564010000000081111561061b57600080fd5b82018360208201111561062d57600080fd5b8035906020019184600183028401116401000000008311171561064f57600080fd5b91908080601f0160208091040260200160405190810160405280939291908181526020018383808284376000920191909152509295505091359250611231915050565b610297600480360360408110156106a857600080fd5b8101906020810181356401000000008111156106c357600080fd5b8201836020820111156106d557600080fd5b803590602001918460018302840111640100000000831117156106f757600080fd5b91908080601f0160208091040260200160405190810160405280939291908181526020018383808284376000920191909152509295505050503515159050611518565b6107576004803603602081101561075057600080fd5b50356115db565b604051808060200180602001848152602001838103835286818151815260200191508051906020019080838360005b8381101561079e578181015183820152602001610786565b50505050905090810190601f1680156107cb5780820380516001836020036101000a031916815260200191505b50838103825285518152855160209182019187019080838360005b838110156107fe5781810151838201526020016107e6565b50505050905090810190601f16801561082b5780820380516001836020036101000a031916815260200191505b509550505050505060405180910390f35b6102976004803603604081101561085257600080fd5b81019060208101813564010000000081111561086d57600080fd5b82018360208201111561087f57600080fd5b803590602001918460018302840111640100000000831117156108a157600080fd5b91908080601f01602080910402602001604051908101604052809392919081815260200183838082843760009201919091525092959493602081019350359150506401000000008111156108f457600080fd5b82018360208201111561090657600080fd5b8035906020019184600183028401116401000000008311171561092857600080fd5b91908080601f016020809104026020016040519081016040528093929190818152602001838380828437600092019190915250929550611730945050505050565b6105c66118b4565b6105c66004803603602081101561098757600080fd5b8101906020810181356401000000008111156109a257600080fd5b8201836020820111156109b457600080fd5b803590602001918460018302840111640100000000831117156109d657600080fd5b91908080601f0160208091040260200160405190810160405280939291908181526020018383808284376000920191909152509295506118bd945050505050565b61029760048036036020811015610a2d57600080fd5b503561192b565b61029760048036036020811015610a4a57600080fd5b5035600160a060020a031661197c565b606080600683815481101515610a6c57fe5b9060005260206000209060030201600001600684815481101515610a8c57fe5b9060005260206000209060030201600101818054600181600116156101000203166002900480601f016020809104026020016040519081016040528092919081815260200182805460018160011615610100020316600290048015610b325780601f10610b0757610100808354040283529160200191610b32565b820191906000526020600020905b815481529060010190602001808311610b1557829003601f168201915b5050845460408051602060026001851615610100026000190190941693909304601f810184900484028201840190925281815295975086945092508401905082828015610bc05780601f10610b9557610100808354040283529160200191610bc0565b820191906000526020600020905b815481529060010190602001808311610ba357829003601f168201915b5050505050905091509150915091565b60025481565b610bde611220565b1515610c22576040805160e560020a62461bcd0281526020600482018190526024820152600080516020611c54833981519152604482015290519081900360640190fd5b6005805460ff19169055565b600154600160a060020a03163314610c4257fe5b60055460ff161515610c5357600080fd5b600354600090610c69908463ffffffff6119d416565b90506000610c82600454856119d490919063ffffffff16565b9050828214610c9057600080fd5b600160a060020a03851660009081526008602052604090204290819055610cbd908263ffffffff611a3d16565b600160a060020a0386166000818152600860209081526040918290206001018490558151938452905191927f6d9501d4c8596b2602660e3aa7db27655be4177db6b3d3eddaefedd8c631fa71929081900390910190a25050505050565b610d22611220565b1515610d66576040805160e560020a62461bcd0281526020600482018190526024820152600080516020611c54833981519152604482015290519081900360640190fd5b6005805460ff19166001179055565b60045481565b600154600160a060020a03163314610d8f57fe5b6000610d99611211565b905080600160a060020a0316ff5b610daf611220565b1515610df3576040805160e560020a62461bcd0281526020600482018190526024820152600080516020611c54833981519152604482015290519081900360640190fd5b600255565b610e00611220565b1515610e44576040805160e560020a62461bcd0281526020600482018190526024820152600080516020611c54833981519152604482015290519081900360640190fd5b6001546040517fd8ddb5c0000000000000000000000000000000000000000000000000000000008152600160a060020a0385811660648301526084820185905260a4820184905260c060048301908152895160c48401528951919093169263d8ddb5c0928a928a928a928a928a928a92909182916024810191604482019160e401906020808d01910280838360005b83811015610eeb578181015183820152602001610ed3565b50505050905001848103835289818151815260200191508051906020019060200280838360005b83811015610f2a578181015183820152602001610f12565b50505050905001848103825288818151815260200191508051906020019060200280838360005b83811015610f69578181015183820152602001610f51565b505050509050019950505050505050505050600060405180830381600087803b158015610f9557600080fd5b505af1158015610fa9573d6000803e3d6000fd5b50505050505050505050565b600154600160a060020a031681565b6006545b90565b610fd3611220565b1515611017576040805160e560020a62461bcd0281526020600482018190526024820152600080516020611c54833981519152604482015290519081900360640190fd5b60008054604051600160a060020a03909116907f8be0079c531659141344cd1fd0a4f28419497f9722a3daafe3b4186f6b6457e0908390a36000805473ffffffffffffffffffffffffffffffffffffffff19169055565b600154600160a060020a0316331461108257fe5b60055460ff16151561109357600080fd5b826007816040518082805190602001908083835b602083106110c65780518252601f1990920191602091820191016110a7565b51815160209384036101000a600019018019909216911617905292019485525060405193849003019092206001015460ff1615159150611107905057600080fd5b6002548314611160576040805160e560020a62461bcd02815260206004820152601d60248201527f5061796d656e7420616d6f756e74206973206e6f7420636f7272656374000000604482015290519081900360640190fd5b84600160a060020a0316827ff45afdb232161f0601d3e1cc8a9a8e9779d3776685ebac2a92d7860fb8cfd532866040518080602001828103825283818151815260200191508051906020019080838360005b838110156111ca5781810151838201526020016111b2565b50505050905090810190601f1680156111f75780820380516001836020036101000a031916815260200191505b509250505060405180910390a35050505050565b60035481565b600054600160a060020a031690565b600054600160a060020a0316331490565b600154600160a060020a0316331461124557fe5b600160a060020a0383166000908152600860205260409020548390158015906112895750600160a060020a0381166000908152600860205260409020600101544211155b15156112df576040805160e560020a62461bcd02815260206004820152601460248201527f537562736372697074696f6e20696e76616c6964000000000000000000000000604482015290519081900360640190fd5b60055460ff1615156112f057600080fd5b826007816040518082805190602001908083835b602083106113235780518252601f199092019160209182019101611304565b51815160209384036101000a600019018019909216911617905292019485525060405193849003019092206001015460ff1615159150611364905057600080fd5b6007846040518082805190602001908083835b602083106113965780518252601f199092019160209182019101611377565b51815160209384036101000a60001901801990921691161790529201948552506040805194859003820190942054600160a060020a038a1660009081526008909252939020549290921180159250905061146f57506007846040518082805190602001908083835b6020831061141d5780518252601f1990920191602091820191016113fe565b51815160209384036101000a60001901801990921691161790529201948552506040805194859003820190942054600160a060020a038a16600090815260089092529390206001015492909210159150505b15156114af5760405160e560020a62461bcd028152600401808060200182810382526028815260200180611c0b6028913960400191505060405180910390fd5b84600160a060020a0316837ff45afdb232161f0601d3e1cc8a9a8e9779d3776685ebac2a92d7860fb8cfd53286604051808060200182810382528381815181526020019150805190602001908083836000838110156111ca5781810151838201526020016111b2565b611520611220565b1515611564576040805160e560020a62461bcd0281526020600482018190526024820152600080516020611c54833981519152604482015290519081900360640190fd5b806007836040518082805190602001908083835b602083106115975780518252601f199092019160209182019101611578565b51815160209384036101000a60001901801990921691161790529201948552506040519384900301909220600101805460ff19169315159390931790925550505050565b60068054829081106115e957fe5b60009182526020918290206003919091020180546040805160026001841615610100026000190190931692909204601f8101859004850283018501909152808252919350918391908301828280156116825780601f1061165757610100808354040283529160200191611682565b820191906000526020600020905b81548152906001019060200180831161166557829003601f168201915b505050505090806001018054600181600116156101000203166002900480601f0160208091040260200160405190810160405280929190818152602001828054600181600116156101000203166002900480156117205780601f106116f557610100808354040283529160200191611720565b820191906000526020600020905b81548152906001019060200180831161170357829003601f168201915b5050505050908060020154905083565b611738611220565b151561177c576040805160e560020a62461bcd0281526020600482018190526024820152600080516020611c54833981519152604482015290519081900360640190fd5b815160511461178a57600080fd5b6040805160608101825283815260208082018490524292820192909252600680546001810180835560009290925282518051929460039092027ff652222313e28459528d920b65115c16c04f3efc82aaedc97be59f3f377c0d3f01926117f39284920190611b4c565b50602082810151805161180c9260018501920190611b4c565b5060408201518160020155505050426007836040518082805190602001908083835b6020831061184d5780518252601f19909201916020918201910161182e565b51815160001960209485036101000a019081169019919091161790529201948552506040519384900381018420949094555050835160019260079286929091829190840190808383602083106115975780518252601f199092019160209182019101611578565b60055460ff1681565b60006007826040518082805190602001908083835b602083106118f15780518252601f1990920191602091820191016118d2565b51815160209384036101000a600019018019909216911617905292019485525060405193849003019092206001015460ff16949350505050565b611933611220565b1515611977576040805160e560020a62461bcd0281526020600482018190526024820152600080516020611c54833981519152604482015290519081900360640190fd5b600355565b611984611220565b15156119c8576040805160e560020a62461bcd0281526020600482018190526024820152600080516020611c54833981519152604482015290519081900360640190fd5b6119d181611a9a565b50565b60008215156119e557506000611a37565b8282028284828115156119f457fe5b0414611a345760405160e560020a62461bcd028152600401808060200182810382526021815260200180611c336021913960400191505060405180910390fd5b90505b92915050565b600082820183811015611a34576040805160e560020a62461bcd02815260206004820152601b60248201527f536166654d6174683a206164646974696f6e206f766572666c6f770000000000604482015290519081900360640190fd5b600160a060020a0381161515611ae45760405160e560020a62461bcd028152600401808060200182810382526026815260200180611be56026913960400191505060405180910390fd5b60008054604051600160a060020a03808516939216917f8be0079c531659141344cd1fd0a4f28419497f9722a3daafe3b4186f6b6457e091a36000805473ffffffffffffffffffffffffffffffffffffffff1916600160a060020a0392909216919091179055565b828054600181600116156101000203166002900490600052602060002090601f016020900481019282601f10611b8d57805160ff1916838001178555611bba565b82800160010185558215611bba579182015b82811115611bba578251825591602001919060010190611b9f565b50611bc6929150611bca565b5090565b610fc891905b80821115611bc65760008155600101611bd056fe4f776e61626c653a206e6577206f776e657220697320746865207a65726f206164647265737344617461206e6f7420617661696c61626c6520666f72207468697320737562736372697074696f6e536166654d6174683a206d756c7469706c69636174696f6e206f766572666c6f774f776e61626c653a2063616c6c6572206973206e6f7420746865206f776e6572a165627a7a7230582050fcf6593a3a5725d471ebf1f5dbf94f4f03f725978ce0f4663d86240c59f33f00294f776e61626c653a206e6577206f776e657220697320746865207a65726f20616464726573738be0079c531659141344cd1fd0a4f28419497f9722a3daafe3b4186f6b6457e043616e6e6f7420726576657274206e6f742073757370656e646564207472616e73616374696f6e55736572206e6f742072656769737465726564000000000000000000000000004f776e61626c653a206e6577206f776e657220697320746865207a65726f2061646472657373456974686572206275796572206f722073656c6c657220697320706173736564206173206d6f64657261746f725a65726f206164647265737320706173736564000000000000000000000000004275796572206f722073656c6c657220646f6573206e6f74206d617463682077697468207472616e73616374696f6e5472616e73616374696f6e206973206e6f7420696e2046554e44454420737461746544657374696e6174696f6e2061646472657373206973206e6f74206f6e65206f6620746865206f776e657273416d6f756e7420746f2062652073656e742073686f756c642062652067726561746572207468616e2030546f74616c2076616c756520746f2062652072656c6561736564206d75737420626520657175616c20746f20746865207472616e73616374696f6e2076616c75655472616e73616374696f6e20646f6573206e6f74206578697374000000000000536166654d6174683a206d756c7469706c69636174696f6e206f766572666c6f774f776e61626c653a2063616c6c6572206973206e6f7420746865206f776e6572427579657220646f6573206e6f7420696e766f6c76656420696e20746865207472616e73616374696f6e52656c6561736564207472616e73616374696f6e206973206e6f742073757370656e6461626c655472616e73616374696f6e206973206e6f7420696e2046554c46494c4c454420737461746553656e646572206973206e6f74207265636f676e697a65642061732073656c6c6572a165627a7a72305820dc0a4ff30f37e53a22f1138ae2099f80d57320b6b614e7adc0577463d1b81f290029",
  "source": "pragma solidity ^0.5.2;\n\nimport \"./SafeMath.sol\";\nimport \"./Ownable.sol\";\nimport \"./Shop.sol\";\n\n/**\n*@dev Marketplace contract integrate with TangleID for \n* user identification, provides a decentralized data marketplace\n* with full transaction transparency that allows data consumers\n* to place bids on auctions for high-value sensor/IoT devices to compensate for invaluable data.\n*/\ncontract Marketplace is Ownable{\n\n    using SafeMath for uint256;\n\n    enum Status {FUNDED, FULFILLED, RELEASED, SUSPENDED, REVERTED}\n\n    struct Transaction {\n        uint256 value;\n        uint256 lastModified;\n        Status  status;\n        uint32  timeoutHours;\n        address buyer;\n        address seller;\n        address moderator;\n        mapping (address => bool) isOwner;\n        mapping (address => bool) voted;\n        bytes32 txHash;\n    }\n\n    struct Account {\n        string uuid;\n        bytes32[] transactions;\n    }\n\n    struct Info {\n        address seller;\n        Shop instance;\n        string info;\n    }\n\n    mapping (address => address)     public allSellers; // traversing from 0x0\n    mapping (address => Info)        public sellerData;\n    mapping (address => Account)     public userAccounts;\n    mapping (bytes32 => Transaction) public transactions;\n\n    uint256 uniqueTxid;\n\n    modifier hasRegistered(address user) {\n        require(bytes(userAccounts[user].uuid).length > 0, \n            \"User not registered\"\n        );\n        _;\n    }\n\n    modifier notRegistered(address user) {\n        require(bytes(userAccounts[user].uuid).length == 0, \n            \"User has registered\"\n        );\n        _;\n    }\n\n    modifier nonZeroAddress(address addressToCheck) {\n        require(addressToCheck != address(0), \"Zero address passed\");\n        _;\n    }\n\n    modifier transactionExists(bytes32 scriptHash) {\n        require(\n            transactions[scriptHash].value != 0, \n            \"Transaction does not exist\"\n        );\n        _;\n    }\n\n    modifier transactionDoesNotExist(bytes32 scriptHash) {\n        require(\n            transactions[scriptHash].value == 0, \n            \"Transaction exists\"\n        );\n        _;\n    }\n\n    modifier inFundedState(bytes32 scriptHash) {\n        require(\n            transactions[scriptHash].status == Status.FUNDED,\n            \"Transaction is not in FUNDED state\"\n        );\n        _;\n    }\n\n    modifier inFulfilledState(bytes32 scriptHash) {\n        require(\n            transactions[scriptHash].status == Status.FULFILLED,\n            \"Transaction is not in FULFILLED state\"\n        );\n        _;\n    }\n\n    modifier shopExists(address shopHolder) {\n        require(\n            address(sellerData[shopHolder].instance) != address(0),\n            \"Shop does not exist\"\n        );\n        _;\n    }\n        \n    modifier shopDoesNotExist(address shopHolder) {\n        require(\n            address(sellerData[shopHolder].instance) == address(0),\n            \"Shop exists\"\n        );\n        _;\n    }\n\n    event Funded(\n        bytes32 indexed scriptHash,\n        address indexed from,\n        uint256 value\n    );\n\n    event Fulfilled(\n        bytes32 indexed scriptHash,\n        address indexed to,\n        bytes32 txHash\n    );\n\n    event Executed(\n        bytes32 indexed scriptHash,\n        address destination,\n        uint256 amount\n    );\n\n    constructor () public {\n    }\n\n    /**\n    *@dev This method is used to register user\n    *in order to use data marketplace service\n    *@param user User account address\n    *@param uuid The uuid of user on TangleID\n    */\n    function registerUser(address user, string calldata uuid) \n        onlyOwner \n        nonZeroAddress(user)\n        notRegistered(user)\n        external \n    {\n        string memory _uuid = uuid;\n        require(bytes(_uuid).length == 26, \"Uuid length does not match\");\n\n        userAccounts[user].uuid = uuid;\n    }\n\n    /**\n    *@dev This method is used to register a shop for a registered user\n    *@param seller Seller account address\n    *@param info Information about the shop\n    */\n    function registerShop(address seller, string calldata info)\n        onlyOwner \n        nonZeroAddress(seller)\n        hasRegistered(seller)\n        shopDoesNotExist(seller)\n        external \n    {\n        _listInsert(seller);\n        sellerData[seller] = Info({\n            seller: seller,\n            instance: new Shop(seller),\n            info: info\n        });\n    }\n\n    /**\n    *@dev Remove a registered shop\n    *@param seller shop holder account address\n    */\n    function removeShop(address seller) \n        onlyOwner \n        nonZeroAddress(seller)\n        shopExists(seller)\n        external \n    {\n        sellerData[seller].instance.kill();\n        _listRemove(seller);\n        delete sellerData[seller];\n    }\n\n    /**\n    *@dev User can use this method to initiate a transaction\n    * to purchase data\n    *@param seller shop holder account address\n    *@param mamRoot the root of a data stream user wants to purchase\n    */\n    function purchaseData(address seller, string calldata mamRoot)\n        hasRegistered(msg.sender)\n        nonZeroAddress(seller)\n        external \n        payable \n        returns (bytes32)\n    {\n\n        uint32 timeoutHours = 48;\n        bytes32 scriptHash = _addTransaction(\n            msg.sender,\n            seller,\n            owner(),\n            timeoutHours,\n            msg.value\n        );\n\n        // imform seller\n        sellerData[seller].instance.purchase(msg.sender, mamRoot, msg.value, scriptHash);\n\n        emit Funded(scriptHash, msg.sender, msg.value);\n\n        return scriptHash;\n    }\n\n    /**\n    *@dev Use this method to subscribe a data provider\n    * for some specified timespan\n    *@param seller shop holder account address\n    *@param time subscription timespan\n    */\n    function subscribeShop(address seller, uint256 time) \n        hasRegistered(msg.sender) \n        nonZeroAddress(seller)\n        external \n        payable \n    {\n        uint32 timeoutHours = 48;\n        bytes32 scriptHash = _addTransaction(\n            msg.sender,\n            seller,\n            owner(),\n            timeoutHours,\n            msg.value\n        );\n\n        sellerData[seller].instance.subscribe(msg.sender, time, msg.value);\n        transactions[scriptHash].status = Status.FULFILLED;\n    }\n\n    /**\n    *@dev User can use this method to redeem data stream if\n    * the subscription is valid\n    *@param seller Shop holder account address\n    *@param mamRoot the specified data stream root\n    */\n    function purchaseBySubscription(address seller, string calldata mamRoot)\n        hasRegistered(msg.sender) \n        nonZeroAddress(seller)\n        external\n    {\n        uint32 timeoutHours = 48;\n        bytes32 scriptHash = _addTransaction(\n            msg.sender,\n            seller,\n            owner(),\n            timeoutHours,\n            0\n        );\n\n        sellerData[seller].instance.getSubscribedData(msg.sender, mamRoot, scriptHash);\n\n        emit Funded(scriptHash, msg.sender, 0);\n    }\n\n\n    function _listRemove(address addr) internal {\n        address n = allSellers[address(0)];\n        address p = address(0);\n\n        while(n != address(0)) {\n            if (n == addr) {\n                allSellers[p] = allSellers[n];\n                break;\n            }\n            p = n;\n            n = allSellers[n];\n        }\n    }\n\n    function _listInsert(address addr) internal {\n      allSellers[addr] = allSellers[address(0)];\n      allSellers[address(0)] = addr;\n    }\n\n    /**\n    *@dev Callback used by Shop instance after data transfer \n    *@param sigV array containing V component of all the signatures\n    *@param sigR array containing R component of all the signatures\n    *@param sigS array containing S component of all the signatures\n    *@param buyer the data buyer\n    *@param scriptHash script hash of the transaction\n    *@param txHash the transaction hash containing data which seller\n    * send to buyer after the purchase\n    */\n    function fulfillPurchase(\n        uint8[] memory sigV,\n        bytes32[] memory sigR,\n        bytes32[] memory sigS,\n        address buyer,\n        bytes32 scriptHash,\n        bytes32 txHash\n    )\n        transactionExists(scriptHash)\n        inFundedState(scriptHash)\n        public\n    {\n        address seller = Shop(msg.sender).owner();\n        require(\n            seller == transactions[scriptHash].seller,\n            \"Sender is not recognized as seller\"\n        );\n\n        require(\n            buyer == transactions[scriptHash].buyer,\n            \"Buyer does not involved in the transaction\"\n        );\n\n        _verifySignatures(\n            sigV, \n            sigR, \n            sigS, \n            scriptHash,\n            seller,\n            transactions[scriptHash].value\n        );\n\n        transactions[scriptHash].status = Status.FULFILLED;\n        transactions[scriptHash].txHash = txHash;\n        transactions[scriptHash].lastModified = block.timestamp;\n\n        emit Fulfilled(scriptHash, buyer, txHash);\n    }\n\n    /**\n    *@dev Method can be used by moderator to suspend a not released\n    * transaction, in situation that the received data is not correct\n    *@param buyer the data buyer\n    *@param buyer the data seller\n    *@param scriptHash script hash of the transaction\n    */\n    function suspendTransaction(\n        address buyer,\n        address seller,\n        bytes32 scriptHash\n    )\n        transactionExists(scriptHash)\n        external\n    {\n        Transaction storage t = transactions[scriptHash];\n\n        require(\n            t.moderator == msg.sender,\n            \"Operation is not allowed\"\n        );\n\n        require(\n            t.buyer == buyer && t.seller == seller,\n            \"Buyer or seller does not match with transaction\"\n        );\n\n        require(\n            t.status != Status.RELEASED,\n            \"Released transaction is not suspendable\"\n        );\n\n        t.status = Status.SUSPENDED;\n    }\n\n    /**\n    *@dev Method can be used by supervisor to revert a suspended\n    * transaction and send the fund back to buyer\n    *@param buyer the data buyer\n    *@param buyer the data seller\n    *@param scriptHash script hash of the transaction\n    */\n    function revertTransaction(\n        address payable buyer,\n        address seller,\n        bytes32 scriptHash\n    )\n        onlyOwner\n        transactionExists(scriptHash)\n        external\n    {\n        Transaction storage t = transactions[scriptHash];\n\n        require(\n            t.buyer == buyer && t.seller == seller,\n            \"Buyer or seller does not match with transaction\"\n        );\n\n        require(\n            t.status == Status.SUSPENDED,\n            \"Cannot revert not suspended transaction\"\n        );\n\n        t.status = Status.REVERTED;\n\n        _transferFunds(scriptHash, buyer, t.value);\n    }\n\n    /**\n    * @dev Private function to add new transaction in the contract\n    * @param buyer The buyer of the transaction\n    * @param seller The seller of the listing associated with the transaction\n    * @param moderator Moderator for this transaction\n    * favour by signing transaction unilaterally\n    * @param timeoutHours Timelock to lock fund \n    * @param value Total value transferred\n    */\n    function _addTransaction(\n        address buyer,\n        address seller,\n        address moderator,\n        uint32 timeoutHours,\n        uint256 value\n    )\n        nonZeroAddress(buyer)\n        nonZeroAddress(seller)\n        private\n        returns (bytes32)\n    {\n        require(buyer != seller, \"Buyer and seller are same\");\n\n        //value passed should be greater than 0\n        //require(value > 0, \"Value passed is 0\");\n\n        bytes32 scriptHash = _calculateScriptHash(\n            buyer,\n            seller,\n            moderator,\n            timeoutHours,\n            value,\n            uniqueTxid\n        );\n\n        require(transactions[scriptHash].value == 0, \"Transaction exist\");\n\n        transactions[scriptHash] = Transaction({\n            buyer: buyer,\n            seller: seller,\n            moderator: moderator,\n            value: value,\n            status: Status.FUNDED,\n            lastModified: block.timestamp,\n            timeoutHours: timeoutHours,\n            txHash: bytes32(0)\n        });\n\n        transactions[scriptHash].isOwner[seller] = true;\n        transactions[scriptHash].isOwner[buyer] = true;\n\n        //check if buyer or seller are not passed as moderator\n        require(\n            !transactions[scriptHash].isOwner[moderator],\n            \"Either buyer or seller is passed as moderator\"\n        );\n\n        transactions[scriptHash].isOwner[moderator] = true;\n\n        userAccounts[buyer].transactions.push(scriptHash);\n        userAccounts[seller].transactions.push(scriptHash);\n\n        uniqueTxid++;\n\n        return scriptHash;\n    }\n\n    /**\n    *@dev This method will be used to release funds associated with\n    * the transaction\n    *@param sigV array containing V component of all the signatures\n    *@param sigR array containing R component of all the signatures\n    *@param sigS array containing S component of all the signatures\n    *@param scriptHash script hash of the transaction\n    *@param destination address who will receive funds\n    *@param amounts amount released to destination\n    */\n    function execute(\n        uint8[] memory sigV,\n        bytes32[] memory sigR,\n        bytes32[] memory sigS,\n        bytes32 scriptHash,\n        address payable destination,\n        uint256 amount\n    )\n        transactionExists(scriptHash)\n        inFulfilledState(scriptHash)\n        nonZeroAddress(destination)\n        // temporary workaround to solve \n        // TypeError: Data location must be \"calldata\" for parameter in external function, but \"memory\" was given.\n        public \n    {\n        require(transactions[scriptHash].value == amount);\n\n        _verifyTransaction(\n            sigV,\n            sigR,\n            sigS,\n            scriptHash,\n            destination,\n            amount\n        );\n\n        transactions[scriptHash].status = Status.RELEASED;\n        transactions[scriptHash].lastModified = block.timestamp;\n\n        if (amount > 0) {\n            require(\n                _transferFunds(scriptHash, destination, amount) == transactions[scriptHash].value,\n                \"Total value to be released must be equal to the transaction value\"\n            );\n        }\n\n        emit Executed(scriptHash, destination, amount);\n    }\n\n    /**\n    *@dev Internal method used to verify transaction\n    */\n    function _verifyTransaction(\n        uint8[] memory sigV,\n        bytes32[] memory sigR,\n        bytes32[] memory sigS,\n        bytes32 scriptHash,\n        address destination,\n        uint256 amount\n    )\n        private\n    {\n        require(\n            transactions[scriptHash].voted[transactions[scriptHash].seller],\n            \"Seller did not sign\"\n        );\n\n        // timeLock is used for locking fund from seller\n        bool timeLockExpired = _isTimeLockExpired(\n            transactions[scriptHash].timeoutHours,\n            transactions[scriptHash].lastModified\n        );\n\n        if (timeLockExpired) {\n            return;\n        }\n\n        _verifySignatures(\n            sigV,\n            sigR,\n            sigS,\n            scriptHash,\n            destination,\n            amount\n        );\n\n    }\n\n    /**\n    *@dev Internal method used to verify signatures\n    */\n    function _verifySignatures(\n        uint8[] memory sigV,\n        bytes32[] memory sigR,\n        bytes32[] memory sigS,\n        bytes32 scriptHash,\n        address destination,\n        uint256 amount\n    )\n        private\n    {\n\n        // Follows ERC191 signature scheme: https://github.com/ethereum/EIPs/issues/191\n        bytes32 txHash = keccak256(\n            abi.encodePacked(\n                \"\\x19Ethereum Signed Message:\\n32\",\n                keccak256(\n                    abi.encodePacked(\n                        byte(0x19),\n                        byte(0),\n                        address(this),\n                        scriptHash,\n                        destination,\n                        amount\n                    )\n                )\n            )\n        );\n\n        for (uint i = 0; i < sigR.length; i++) {\n\n            address recovered = ecrecover(\n                txHash,\n                sigV[i],\n                sigR[i],\n                sigS[i]\n            );\n\n            require(\n                transactions[scriptHash].isOwner[recovered],\n                \"Invalid signature\"\n            );\n            require(\n                !transactions[scriptHash].voted[recovered],\n                \"Same signature sent twice\"\n            );\n            transactions[scriptHash].voted[recovered] = true;\n        }\n    }\n\n    /**\n    *@dev Internal method used to determine is transaction\n    * time lock expired\n    */\n    function _isTimeLockExpired(\n        uint32 timeoutHours,\n        uint256 lastModified\n    )\n        private\n        view\n        returns (bool)\n    {\n        uint256 timeSince = now.sub(lastModified);\n        return (\n            timeoutHours == 0 ? false : timeSince > uint256(timeoutHours).mul(3600)\n        );\n    }\n\n    function _transferFunds(\n        bytes32 scriptHash,\n        address payable destination,\n        uint256 amount\n    )\n        private\n        nonZeroAddress(destination)\n        returns (uint256)\n    {\n        Transaction storage t = transactions[scriptHash];\n\n        uint256 valueTransferred = 0;\n\n        require(\n            t.isOwner[destination],\n            \"Destination address is not one of the owners\"\n        );\n\n        require(\n            amount > 0,\n            \"Amount to be sent should be greater than 0\"\n        );\n\n        valueTransferred = valueTransferred.add(amount);\n\n        destination.transfer(amount);\n        return valueTransferred;\n    }\n\n    function _calculateScriptHash(\n        address buyer,\n        address seller,\n        address moderator,\n        uint32 timeoutHours,\n        uint256 value,\n        uint256 uniqueId\n    )\n        private\n        pure\n        returns (bytes32)\n    {\n        return keccak256(\n            abi.encodePacked(\n                buyer,\n                seller,\n                moderator,\n                timeoutHours,\n                value,\n                uniqueId\n            )\n        );\n    }\n}\n\n",
  "sourcePath": "/Users/minfengqi/Documents/PHD/Project/Marketplace/contracts/Marketplace.sol",
  "compiler": {
    "name": "solc",
    "version": "0.5.2+commit.1df8f40c.Emscripten.clang"
  },
  "schemaVersion": "3.4.3",
  "updatedAt": "2021-08-22T02:54:56.943Z",
  "networkType": "ethereum",
  "devdoc": {
    "methods": {
      "isOwner()": {
        "return": "true if `msg.sender` is the owner of the contract."
      },
      "owner()": {
        "return": "the address of the owner."
      },
      "renounceOwnership()": {
        "details": "Allows the current owner to relinquish control of the contract. It will not be possible to call the functions with the `onlyOwner` modifier anymore."
      },
      "transferOwnership(address)": {
        "details": "Allows the current owner to transfer control of the contract to a newOwner.",
        "params": {
          "newOwner": "The address to transfer ownership to."
        }
      }
    }
  },
  "userdoc": {
    "methods": {
      "execute(uint8[],bytes32[],bytes32[],bytes32,address,uint256)": {
        "notice": "dev This method will be used to release funds associated with the transaction param sigV array containing V component of all the signatures param sigR array containing R component of all the signatures param sigS array containing S component of all the signatures param scriptHash script hash of the transaction param destination address who will receive funds param amounts amount released to destination"
      },
      "fulfillPurchase(uint8[],bytes32[],bytes32[],address,bytes32,bytes32)": {
        "notice": "dev Callback used by Shop instance after data transfer  param sigV array containing V component of all the signatures param sigR array containing R component of all the signatures param sigS array containing S component of all the signatures param buyer the data buyer param scriptHash script hash of the transaction param txHash the transaction hash containing data which seller send to buyer after the purchase"
      },
      "purchaseBySubscription(address,string)": {
        "notice": "dev User can use this method to redeem data stream if the subscription is valid param seller Shop holder account address param mamRoot the specified data stream root"
      },
      "purchaseData(address,string)": {
        "notice": "dev User can use this method to initiate a transaction to purchase data param seller shop holder account address param mamRoot the root of a data stream user wants to purchase"
      },
      "registerShop(address,string)": {
        "notice": "dev This method is used to register a shop for a registered user param seller Seller account address param info Information about the shop"
      },
      "registerUser(address,string)": {
        "notice": "dev This method is used to register user n order to use data marketplace service param user User account address param uuid The uuid of user on TangleID"
      },
      "removeShop(address)": {
        "notice": "dev Remove a registered shop param seller shop holder account address"
      },
      "renounceOwnership()": {
        "notice": "Renouncing ownership will leave the contract without an owner, thereby removing any functionality that is only available to the owner."
      },
      "revertTransaction(address,address,bytes32)": {
        "notice": "dev Method can be used by supervisor to revert a suspended transaction and send the fund back to buyer param buyer the data buyer param buyer the data seller param scriptHash script hash of the transaction"
      },
      "subscribeShop(address,uint256)": {
        "notice": "dev Use this method to subscribe a data provider for some specified timespan param seller shop holder account address param time subscription timespan"
      },
      "suspendTransaction(address,address,bytes32)": {
        "notice": "dev Method can be used by moderator to suspend a not released transaction, in situation that the received data is not correct param buyer the data buyer param buyer the data seller param scriptHash script hash of the transaction"
      }
    },
    "notice": "dev Marketplace contract integrate with TangleID for  user identification, provides a decentralized data marketplace with full transaction transparency that allows data consumers to place bids on auctions for high-value sensor/IoT devices to compensate for invaluable data."
  }
}