{
  "contractName": "Shop",
  "abi": [
    {
      "constant": true,
      "inputs": [],
      "name": "singlePurchasePrice",
      "outputs": [
        {
          "name": "",
          "type": "uint256"
        }
      ],
      "payable": false,
      "stateMutability": "view",
      "type": "function"
    },
    {
      "constant": true,
      "inputs": [],
      "name": "timeUnit",
      "outputs": [
        {
          "name": "",
          "type": "uint256"
        }
      ],
      "payable": false,
      "stateMutability": "view",
      "type": "function"
    },
    {
      "constant": true,
      "inputs": [],
      "name": "supervisor",
      "outputs": [
        {
          "name": "",
          "type": "address"
        }
      ],
      "payable": false,
      "stateMutability": "view",
      "type": "function"
    },
    {
      "constant": false,
      "inputs": [],
      "name": "renounceOwnership",
      "outputs": [],
      "payable": false,
      "stateMutability": "nonpayable",
      "type": "function"
    },
    {
      "constant": true,
      "inputs": [],
      "name": "subscribePerTimePrice",
      "outputs": [
        {
          "name": "",
          "type": "uint256"
        }
      ],
      "payable": false,
      "stateMutability": "view",
      "type": "function"
    },
    {
      "constant": true,
      "inputs": [],
      "name": "owner",
      "outputs": [
        {
          "name": "",
          "type": "address"
        }
      ],
      "payable": false,
      "stateMutability": "view",
      "type": "function"
    },
    {
      "constant": true,
      "inputs": [],
      "name": "isOwner",
      "outputs": [
        {
          "name": "",
          "type": "bool"
        }
      ],
      "payable": false,
      "stateMutability": "view",
      "type": "function"
    },
    {
      "constant": true,
      "inputs": [
        {
          "name": "",
          "type": "uint256"
        }
      ],
      "name": "dataList",
      "outputs": [
        {
          "name": "mamRoot",
          "type": "string"
        },
        {
          "name": "metadata",
          "type": "string"
        },
        {
          "name": "time",
          "type": "uint256"
        }
      ],
      "payable": false,
      "stateMutability": "view",
      "type": "function"
    },
    {
      "constant": true,
      "inputs": [],
      "name": "openForPurchase",
      "outputs": [
        {
          "name": "",
          "type": "bool"
        }
      ],
      "payable": false,
      "stateMutability": "view",
      "type": "function"
    },
    {
      "constant": false,
      "inputs": [
        {
          "name": "newOwner",
          "type": "address"
        }
      ],
      "name": "transferOwnership",
      "outputs": [],
      "payable": false,
      "stateMutability": "nonpayable",
      "type": "function"
    },
    {
      "inputs": [
        {
          "name": "owner",
          "type": "address"
        }
      ],
      "payable": false,
      "stateMutability": "nonpayable",
      "type": "constructor"
    },
    {
      "anonymous": false,
      "inputs": [
        {
          "indexed": true,
          "name": "scriptHash",
          "type": "bytes32"
        },
        {
          "indexed": true,
          "name": "buyer",
          "type": "address"
        },
        {
          "indexed": false,
          "name": "mamRoot",
          "type": "string"
        }
      ],
      "name": "Purchase",
      "type": "event"
    },
    {
      "anonymous": false,
      "inputs": [
        {
          "indexed": true,
          "name": "buyer",
          "type": "address"
        },
        {
          "indexed": false,
          "name": "expirationTime",
          "type": "uint256"
        }
      ],
      "name": "Subscribe",
      "type": "event"
    },
    {
      "anonymous": false,
      "inputs": [
        {
          "indexed": true,
          "name": "previousOwner",
          "type": "address"
        },
        {
          "indexed": true,
          "name": "newOwner",
          "type": "address"
        }
      ],
      "name": "OwnershipTransferred",
      "type": "event"
    },
    {
      "constant": false,
      "inputs": [],
      "name": "setPurchaseOpen",
      "outputs": [],
      "payable": false,
      "stateMutability": "nonpayable",
      "type": "function"
    },
    {
      "constant": false,
      "inputs": [],
      "name": "setPurchaseClose",
      "outputs": [],
      "payable": false,
      "stateMutability": "nonpayable",
      "type": "function"
    },
    {
      "constant": false,
      "inputs": [
        {
          "name": "price",
          "type": "uint256"
        }
      ],
      "name": "setSinglePurchasePrice",
      "outputs": [],
      "payable": false,
      "stateMutability": "nonpayable",
      "type": "function"
    },
    {
      "constant": false,
      "inputs": [
        {
          "name": "price",
          "type": "uint256"
        }
      ],
      "name": "setSubscribePrice",
      "outputs": [],
      "payable": false,
      "stateMutability": "nonpayable",
      "type": "function"
    },
    {
      "constant": true,
      "inputs": [],
      "name": "getDataListSize",
      "outputs": [
        {
          "name": "",
          "type": "uint256"
        }
      ],
      "payable": false,
      "stateMutability": "view",
      "type": "function"
    },
    {
      "constant": true,
      "inputs": [
        {
          "name": "mamRoot",
          "type": "string"
        }
      ],
      "name": "getDataAvailability",
      "outputs": [
        {
          "name": "",
          "type": "bool"
        }
      ],
      "payable": false,
      "stateMutability": "view",
      "type": "function"
    },
    {
      "constant": false,
      "inputs": [
        {
          "name": "mamRoot",
          "type": "string"
        },
        {
          "name": "isValid",
          "type": "bool"
        }
      ],
      "name": "setDataAvailability",
      "outputs": [],
      "payable": false,
      "stateMutability": "nonpayable",
      "type": "function"
    },
    {
      "constant": false,
      "inputs": [
        {
          "name": "mamRoot",
          "type": "string"
        },
        {
          "name": "metadata",
          "type": "string"
        }
      ],
      "name": "updateData",
      "outputs": [],
      "payable": false,
      "stateMutability": "nonpayable",
      "type": "function"
    },
    {
      "constant": true,
      "inputs": [
        {
          "name": "index",
          "type": "uint256"
        }
      ],
      "name": "getData",
      "outputs": [
        {
          "name": "",
          "type": "string"
        },
        {
          "name": "",
          "type": "string"
        }
      ],
      "payable": false,
      "stateMutability": "view",
      "type": "function"
    },
    {
      "constant": false,
      "inputs": [
        {
          "name": "buyer",
          "type": "address"
        },
        {
          "name": "mamRoot",
          "type": "string"
        },
        {
          "name": "amount",
          "type": "uint256"
        },
        {
          "name": "scriptHash",
          "type": "bytes32"
        }
      ],
      "name": "purchase",
      "outputs": [],
      "payable": false,
      "stateMutability": "nonpayable",
      "type": "function"
    },
    {
      "constant": false,
      "inputs": [
        {
          "name": "buyer",
          "type": "address"
        },
        {
          "name": "timeInHours",
          "type": "uint256"
        },
        {
          "name": "amount",
          "type": "uint256"
        }
      ],
      "name": "subscribe",
      "outputs": [],
      "payable": false,
      "stateMutability": "nonpayable",
      "type": "function"
    },
    {
      "constant": false,
      "inputs": [
        {
          "name": "buyer",
          "type": "address"
        },
        {
          "name": "mamRoot",
          "type": "string"
        },
        {
          "name": "scriptHash",
          "type": "bytes32"
        }
      ],
      "name": "getSubscribedData",
      "outputs": [],
      "payable": false,
      "stateMutability": "nonpayable",
      "type": "function"
    },
    {
      "constant": false,
      "inputs": [
        {
          "name": "sigV",
          "type": "uint8[]"
        },
        {
          "name": "sigR",
          "type": "bytes32[]"
        },
        {
          "name": "sigS",
          "type": "bytes32[]"
        },
        {
          "name": "buyer",
          "type": "address"
        },
        {
          "name": "scriptHash",
          "type": "bytes32"
        },
        {
          "name": "txHash",
          "type": "bytes32"
        }
      ],
      "name": "txFinalize",
      "outputs": [],
      "payable": false,
      "stateMutability": "nonpayable",
      "type": "function"
    },
    {
      "constant": false,
      "inputs": [],
      "name": "kill",
      "outputs": [],
      "payable": false,
      "stateMutability": "nonpayable",
      "type": "function"
    }
  ],
  "bytecode": "0x6080604052610e106004556005805460ff191690553480156200002157600080fd5b5060405160208062001ef5833981018060405260208110156200004357600080fd5b505160008054600160a060020a0319163317808255604051600160a060020a0391909116919060008051602062001ed5833981519152908290a36200009181640100000000620000aa810204565b5060018054600160a060020a0319163317905562000200565b620000bd64010000000062000142810204565b15156200012b57604080517f08c379a000000000000000000000000000000000000000000000000000000000815260206004820181905260248201527f4f776e61626c653a2063616c6c6572206973206e6f7420746865206f776e6572604482015290519081900360640190fd5b6200013f8164010000000062000153810204565b50565b600054600160a060020a0316331490565b600160a060020a0381161515620001b6576040517f08c379a000000000000000000000000000000000000000000000000000000000815260040180806020018281038252602681526020018062001eaf6026913960400191505060405180910390fd5b60008054604051600160a060020a038085169392169160008051602062001ed583398151915291a360008054600160a060020a031916600160a060020a0392909216919091179055565b611c9f80620002106000396000f3fe608060405234801561001057600080fd5b5060043610610175576000357c010000000000000000000000000000000000000000000000000000000090048063770ee29a116100e0578063af4a74cf11610099578063af4a74cf1461073a578063bddbb0231461083c578063bee1c16c14610969578063cfbff06914610971578063e2883b7614610a17578063f2fde38b14610a3457610175565b8063770ee29a146104f357806383aa7718146105ae5780638da5cb5b146105b65780638f32d59b146105be578063a86f183d146105da578063a8d76ebd1461069257610175565b806341c0e1b51161013257806341c0e1b5146102db57806341f74884146102e357806347445bb91461030057806356e4b68b146104bf578063581b7dc8146104e3578063715018a6146104eb57610175565b80630178fe3f1461017a578063046868e71461027557806306a00a091461028f57806322d4a175146102995780632e829852146102cb5780633c6a7f9b146102d3575b600080fd5b6101976004803603602081101561019057600080fd5b5035610a5a565b604051808060200180602001838103835285818151815260200191508051906020019080838360005b838110156101d85781810151838201526020016101c0565b50505050905090810190601f1680156102055780820380516001836020036101000a031916815260200191505b50838103825284518152845160209182019186019080838360005b83811015610238578181015183820152602001610220565b50505050905090810190601f1680156102655780820380516001836020036101000a031916815260200191505b5094505050505060405180910390f35b61027d610bd0565b60408051918252519081900360200190f35b610297610bd6565b005b610297600480360360608110156102af57600080fd5b50600160a060020a038135169060208101359060400135610c2e565b610297610d1a565b61027d610d75565b610297610d7b565b610297600480360360208110156102f957600080fd5b5035610da7565b610297600480360360c081101561031657600080fd5b81019060208101813564010000000081111561033157600080fd5b82018360208201111561034357600080fd5b8035906020019184602083028401116401000000008311171561036557600080fd5b91908080602002602001604051908101604052809392919081815260200183836020028082843760009201919091525092959493602081019350359150506401000000008111156103b557600080fd5b8201836020820111156103c757600080fd5b803590602001918460208302840111640100000000831117156103e957600080fd5b919080806020026020016040519081016040528093929190818152602001838360200280828437600092019190915250929594936020810193503591505064010000000081111561043957600080fd5b82018360208201111561044b57600080fd5b8035906020019184602083028401116401000000008311171561046d57600080fd5b91908080602002602001604051908101604052809392919081815260200183836020028082843760009201919091525092955050600160a060020a038335169350505060208101359060400135610df8565b6104c7610fb5565b60408051600160a060020a039092168252519081900360200190f35b61027d610fc4565b610297610fcb565b6102976004803603608081101561050957600080fd5b600160a060020a03823516919081019060408101602082013564010000000081111561053457600080fd5b82018360208201111561054657600080fd5b8035906020019184600183028401116401000000008311171561056857600080fd5b91908080601f016020809104026020016040519081016040528093929190818152602001838380828437600092019190915250929550508235935050506020013561106e565b61027d61120b565b6104c7611211565b6105c6611220565b604080519115158252519081900360200190f35b610297600480360360608110156105f057600080fd5b600160a060020a03823516919081019060408101602082013564010000000081111561061b57600080fd5b82018360208201111561062d57600080fd5b8035906020019184600183028401116401000000008311171561064f57600080fd5b91908080601f0160208091040260200160405190810160405280939291908181526020018383808284376000920191909152509295505091359250611231915050565b610297600480360360408110156106a857600080fd5b8101906020810181356401000000008111156106c357600080fd5b8201836020820111156106d557600080fd5b803590602001918460018302840111640100000000831117156106f757600080fd5b91908080601f0160208091040260200160405190810160405280939291908181526020018383808284376000920191909152509295505050503515159050611518565b6107576004803603602081101561075057600080fd5b50356115db565b604051808060200180602001848152602001838103835286818151815260200191508051906020019080838360005b8381101561079e578181015183820152602001610786565b50505050905090810190601f1680156107cb5780820380516001836020036101000a031916815260200191505b50838103825285518152855160209182019187019080838360005b838110156107fe5781810151838201526020016107e6565b50505050905090810190601f16801561082b5780820380516001836020036101000a031916815260200191505b509550505050505060405180910390f35b6102976004803603604081101561085257600080fd5b81019060208101813564010000000081111561086d57600080fd5b82018360208201111561087f57600080fd5b803590602001918460018302840111640100000000831117156108a157600080fd5b91908080601f01602080910402602001604051908101604052809392919081815260200183838082843760009201919091525092959493602081019350359150506401000000008111156108f457600080fd5b82018360208201111561090657600080fd5b8035906020019184600183028401116401000000008311171561092857600080fd5b91908080601f016020809104026020016040519081016040528093929190818152602001838380828437600092019190915250929550611730945050505050565b6105c66118b4565b6105c66004803603602081101561098757600080fd5b8101906020810181356401000000008111156109a257600080fd5b8201836020820111156109b457600080fd5b803590602001918460018302840111640100000000831117156109d657600080fd5b91908080601f0160208091040260200160405190810160405280939291908181526020018383808284376000920191909152509295506118bd945050505050565b61029760048036036020811015610a2d57600080fd5b503561192b565b61029760048036036020811015610a4a57600080fd5b5035600160a060020a031661197c565b606080600683815481101515610a6c57fe5b9060005260206000209060030201600001600684815481101515610a8c57fe5b9060005260206000209060030201600101818054600181600116156101000203166002900480601f016020809104026020016040519081016040528092919081815260200182805460018160011615610100020316600290048015610b325780601f10610b0757610100808354040283529160200191610b32565b820191906000526020600020905b815481529060010190602001808311610b1557829003601f168201915b5050845460408051602060026001851615610100026000190190941693909304601f810184900484028201840190925281815295975086945092508401905082828015610bc05780601f10610b9557610100808354040283529160200191610bc0565b820191906000526020600020905b815481529060010190602001808311610ba357829003601f168201915b5050505050905091509150915091565b60025481565b610bde611220565b1515610c22576040805160e560020a62461bcd0281526020600482018190526024820152600080516020611c54833981519152604482015290519081900360640190fd5b6005805460ff19169055565b600154600160a060020a03163314610c4257fe5b60055460ff161515610c5357600080fd5b600354600090610c69908463ffffffff6119d416565b90506000610c82600454856119d490919063ffffffff16565b9050828214610c9057600080fd5b600160a060020a03851660009081526008602052604090204290819055610cbd908263ffffffff611a3d16565b600160a060020a0386166000818152600860209081526040918290206001018490558151938452905191927f6d9501d4c8596b2602660e3aa7db27655be4177db6b3d3eddaefedd8c631fa71929081900390910190a25050505050565b610d22611220565b1515610d66576040805160e560020a62461bcd0281526020600482018190526024820152600080516020611c54833981519152604482015290519081900360640190fd5b6005805460ff19166001179055565b60045481565b600154600160a060020a03163314610d8f57fe5b6000610d99611211565b905080600160a060020a0316ff5b610daf611220565b1515610df3576040805160e560020a62461bcd0281526020600482018190526024820152600080516020611c54833981519152604482015290519081900360640190fd5b600255565b610e00611220565b1515610e44576040805160e560020a62461bcd0281526020600482018190526024820152600080516020611c54833981519152604482015290519081900360640190fd5b6001546040517fd8ddb5c0000000000000000000000000000000000000000000000000000000008152600160a060020a0385811660648301526084820185905260a4820184905260c060048301908152895160c48401528951919093169263d8ddb5c0928a928a928a928a928a928a92909182916024810191604482019160e401906020808d01910280838360005b83811015610eeb578181015183820152602001610ed3565b50505050905001848103835289818151815260200191508051906020019060200280838360005b83811015610f2a578181015183820152602001610f12565b50505050905001848103825288818151815260200191508051906020019060200280838360005b83811015610f69578181015183820152602001610f51565b505050509050019950505050505050505050600060405180830381600087803b158015610f9557600080fd5b505af1158015610fa9573d6000803e3d6000fd5b50505050505050505050565b600154600160a060020a031681565b6006545b90565b610fd3611220565b1515611017576040805160e560020a62461bcd0281526020600482018190526024820152600080516020611c54833981519152604482015290519081900360640190fd5b60008054604051600160a060020a03909116907f8be0079c531659141344cd1fd0a4f28419497f9722a3daafe3b4186f6b6457e0908390a36000805473ffffffffffffffffffffffffffffffffffffffff19169055565b600154600160a060020a0316331461108257fe5b60055460ff16151561109357600080fd5b826007816040518082805190602001908083835b602083106110c65780518252601f1990920191602091820191016110a7565b51815160209384036101000a600019018019909216911617905292019485525060405193849003019092206001015460ff1615159150611107905057600080fd5b6002548314611160576040805160e560020a62461bcd02815260206004820152601d60248201527f5061796d656e7420616d6f756e74206973206e6f7420636f7272656374000000604482015290519081900360640190fd5b84600160a060020a0316827ff45afdb232161f0601d3e1cc8a9a8e9779d3776685ebac2a92d7860fb8cfd532866040518080602001828103825283818151815260200191508051906020019080838360005b838110156111ca5781810151838201526020016111b2565b50505050905090810190601f1680156111f75780820380516001836020036101000a031916815260200191505b509250505060405180910390a35050505050565b60035481565b600054600160a060020a031690565b600054600160a060020a0316331490565b600154600160a060020a0316331461124557fe5b600160a060020a0383166000908152600860205260409020548390158015906112895750600160a060020a0381166000908152600860205260409020600101544211155b15156112df576040805160e560020a62461bcd02815260206004820152601460248201527f537562736372697074696f6e20696e76616c6964000000000000000000000000604482015290519081900360640190fd5b60055460ff1615156112f057600080fd5b826007816040518082805190602001908083835b602083106113235780518252601f199092019160209182019101611304565b51815160209384036101000a600019018019909216911617905292019485525060405193849003019092206001015460ff1615159150611364905057600080fd5b6007846040518082805190602001908083835b602083106113965780518252601f199092019160209182019101611377565b51815160209384036101000a60001901801990921691161790529201948552506040805194859003820190942054600160a060020a038a1660009081526008909252939020549290921180159250905061146f57506007846040518082805190602001908083835b6020831061141d5780518252601f1990920191602091820191016113fe565b51815160209384036101000a60001901801990921691161790529201948552506040805194859003820190942054600160a060020a038a16600090815260089092529390206001015492909210159150505b15156114af5760405160e560020a62461bcd028152600401808060200182810382526028815260200180611c0b6028913960400191505060405180910390fd5b84600160a060020a0316837ff45afdb232161f0601d3e1cc8a9a8e9779d3776685ebac2a92d7860fb8cfd53286604051808060200182810382528381815181526020019150805190602001908083836000838110156111ca5781810151838201526020016111b2565b611520611220565b1515611564576040805160e560020a62461bcd0281526020600482018190526024820152600080516020611c54833981519152604482015290519081900360640190fd5b806007836040518082805190602001908083835b602083106115975780518252601f199092019160209182019101611578565b51815160209384036101000a60001901801990921691161790529201948552506040519384900301909220600101805460ff19169315159390931790925550505050565b60068054829081106115e957fe5b60009182526020918290206003919091020180546040805160026001841615610100026000190190931692909204601f8101859004850283018501909152808252919350918391908301828280156116825780601f1061165757610100808354040283529160200191611682565b820191906000526020600020905b81548152906001019060200180831161166557829003601f168201915b505050505090806001018054600181600116156101000203166002900480601f0160208091040260200160405190810160405280929190818152602001828054600181600116156101000203166002900480156117205780601f106116f557610100808354040283529160200191611720565b820191906000526020600020905b81548152906001019060200180831161170357829003601f168201915b5050505050908060020154905083565b611738611220565b151561177c576040805160e560020a62461bcd0281526020600482018190526024820152600080516020611c54833981519152604482015290519081900360640190fd5b815160511461178a57600080fd5b6040805160608101825283815260208082018490524292820192909252600680546001810180835560009290925282518051929460039092027ff652222313e28459528d920b65115c16c04f3efc82aaedc97be59f3f377c0d3f01926117f39284920190611b4c565b50602082810151805161180c9260018501920190611b4c565b5060408201518160020155505050426007836040518082805190602001908083835b6020831061184d5780518252601f19909201916020918201910161182e565b51815160001960209485036101000a019081169019919091161790529201948552506040519384900381018420949094555050835160019260079286929091829190840190808383602083106115975780518252601f199092019160209182019101611578565b60055460ff1681565b60006007826040518082805190602001908083835b602083106118f15780518252601f1990920191602091820191016118d2565b51815160209384036101000a600019018019909216911617905292019485525060405193849003019092206001015460ff16949350505050565b611933611220565b1515611977576040805160e560020a62461bcd0281526020600482018190526024820152600080516020611c54833981519152604482015290519081900360640190fd5b600355565b611984611220565b15156119c8576040805160e560020a62461bcd0281526020600482018190526024820152600080516020611c54833981519152604482015290519081900360640190fd5b6119d181611a9a565b50565b60008215156119e557506000611a37565b8282028284828115156119f457fe5b0414611a345760405160e560020a62461bcd028152600401808060200182810382526021815260200180611c336021913960400191505060405180910390fd5b90505b92915050565b600082820183811015611a34576040805160e560020a62461bcd02815260206004820152601b60248201527f536166654d6174683a206164646974696f6e206f766572666c6f770000000000604482015290519081900360640190fd5b600160a060020a0381161515611ae45760405160e560020a62461bcd028152600401808060200182810382526026815260200180611be56026913960400191505060405180910390fd5b60008054604051600160a060020a03808516939216917f8be0079c531659141344cd1fd0a4f28419497f9722a3daafe3b4186f6b6457e091a36000805473ffffffffffffffffffffffffffffffffffffffff1916600160a060020a0392909216919091179055565b828054600181600116156101000203166002900490600052602060002090601f016020900481019282601f10611b8d57805160ff1916838001178555611bba565b82800160010185558215611bba579182015b82811115611bba578251825591602001919060010190611b9f565b50611bc6929150611bca565b5090565b610fc891905b80821115611bc65760008155600101611bd056fe4f776e61626c653a206e6577206f776e657220697320746865207a65726f206164647265737344617461206e6f7420617661696c61626c6520666f72207468697320737562736372697074696f6e536166654d6174683a206d756c7469706c69636174696f6e206f766572666c6f774f776e61626c653a2063616c6c6572206973206e6f7420746865206f776e6572a165627a7a7230582050fcf6593a3a5725d471ebf1f5dbf94f4f03f725978ce0f4663d86240c59f33f00294f776e61626c653a206e6577206f776e657220697320746865207a65726f20616464726573738be0079c531659141344cd1fd0a4f28419497f9722a3daafe3b4186f6b6457e0",
  "source": "pragma solidity ^0.5.2;\n\nimport \"./SafeMath.sol\";\nimport \"./Ownable.sol\";\nimport \"./Marketplace.sol\";\n\n/**\n *@dev A interface for shop holder to set product information and prices\n * in data marketplace\n */\ncontract Shop is Ownable {\n    using SafeMath for uint256;\n\n    struct data {\n        string mamRoot;\n        string metadata;\n        uint256 time;\n    }\n\n    struct dataInfo {\n        uint256 time;\n        bool valid;\n    }\n\n    struct timePeriod {\n        uint256 start;\n        uint256 end;\n    }\n\n    address public supervisor;\n    uint256 public singlePurchasePrice;\n    uint256 public subscribePerTimePrice;\n    uint256 public timeUnit = 1 hours;\n    bool public openForPurchase = false;\n\n    /* TODO: make it a linked list */\n    data[] public dataList;\n\n    mapping(string => dataInfo) private dataAvailability;\n    mapping(address => timePeriod) private subscriptionList;\n\n    modifier supervised() {\n        assert(msg.sender == supervisor);\n        _;\n    }\n\n    modifier subscriptionValid(address account) {\n        require(\n            subscriptionList[account].start != 0 &&\n                subscriptionList[account].end >= block.timestamp,\n            \"Subscription invalid\"\n        );\n        _;\n    }\n\n    modifier isPurchasable() {\n        require(openForPurchase);\n        _;\n    }\n\n    modifier isDataExist(string memory mamRoot) {\n        require(dataAvailability[mamRoot].valid);\n        _;\n    }\n\n    event Purchase(\n        bytes32 indexed scriptHash,\n        address indexed buyer,\n        string mamRoot\n    );\n    event Subscribe(address indexed buyer, uint256 expirationTime);\n\n    constructor(address owner) public {\n        transferOwnership(owner);\n        supervisor = msg.sender;\n    }\n\n    /**\n     *@dev Enable buyer to purchase data from shop\n     */\n    function setPurchaseOpen() external onlyOwner {\n        openForPurchase = true;\n    }\n\n    /**\n     *@dev Disable buyer to purchase data from shop\n     */\n    function setPurchaseClose() external onlyOwner {\n        openForPurchase = false;\n    }\n\n    /**\n     *@dev Use this method to set single purchase price of the data\n     *@param price The price of data\n     */\n    function setSinglePurchasePrice(uint256 price) public onlyOwner {\n        singlePurchasePrice = price;\n    }\n\n    /**\n     *@dev Use this method to set subscribe per time unit price of the data\n     *@param price The price of subscribe per time unit\n     */\n    function setSubscribePrice(uint256 price) public onlyOwner {\n        subscribePerTimePrice = price;\n    }\n\n    /**\n     *@dev An api for user to get dataList size, since user cannot get it directly\n     */\n    function getDataListSize() public view returns (uint256) {\n        return dataList.length;\n    }\n\n    function getDataAvailability(string memory mamRoot)\n        public\n        view\n        returns (bool)\n    {\n        return dataAvailability[mamRoot].valid;\n    }\n\n    /**\n     *@dev Shop holder can use this method to set the availability of data\n     *@param mamRoot The specified data root\n     *@param isValid The availability of data\n     */\n    function setDataAvailability(string memory mamRoot, bool isValid)\n        public\n        onlyOwner\n    {\n        dataAvailability[mamRoot].valid = isValid;\n    }\n\n    /**\n     *@dev Shop holder can use this method to add new data onto their shop\n     *@param mamRoot The specified data root\n     *@param metadata The metadata of the data\n     */\n    function updateData(string memory mamRoot, string memory metadata)\n        public\n        onlyOwner\n    {\n        require(bytes(mamRoot).length == 81);\n\n        dataList.push(\n            data({mamRoot: mamRoot, metadata: metadata, time: block.timestamp})\n        );\n\n        dataAvailability[mamRoot].time = block.timestamp;\n        dataAvailability[mamRoot].valid = true;\n    }\n\n    /**\n     *@dev Method used to get metadata in data list\n     *@param index The index of data in the dataList\n     */\n    function getData(uint256 index)\n        public\n        view\n        returns (string memory, string memory)\n    {\n        return (dataList[index].mamRoot, dataList[index].metadata);\n    }\n\n    /**\n     *@dev An internel purchase function only used by supervisor\n     */\n    function purchase(\n        address buyer,\n        string memory mamRoot,\n        uint256 amount,\n        bytes32 scriptHash\n    ) public supervised isPurchasable isDataExist(mamRoot) {\n        require(amount == singlePurchasePrice, \"Payment amount is not correct\");\n\n        emit Purchase(scriptHash, buyer, mamRoot);\n    }\n\n    /**\n     *@dev An internel subscribe function only used by supervisor\n     */\n    function subscribe(\n        address buyer,\n        uint256 timeInHours,\n        uint256 amount\n    ) public supervised isPurchasable {\n        uint256 totalPayAmount = subscribePerTimePrice.mul(timeInHours);\n        uint256 totalTime = timeInHours.mul(timeUnit);\n        require(amount == totalPayAmount);\n\n        subscriptionList[buyer].start = block.timestamp;\n        subscriptionList[buyer].end = subscriptionList[buyer].start.add(\n            totalTime\n        );\n\n        emit Subscribe(buyer, subscriptionList[buyer].end);\n    }\n\n    /**\n     *@dev An internel function to redeem data by valid subscription\n     */\n    function getSubscribedData(\n        address buyer,\n        string memory mamRoot,\n        bytes32 scriptHash\n    )\n        public\n        supervised\n        subscriptionValid(buyer)\n        isPurchasable\n        isDataExist(mamRoot)\n    {\n        require(\n            subscriptionList[buyer].start <= dataAvailability[mamRoot].time &&\n                subscriptionList[buyer].end >= dataAvailability[mamRoot].time,\n            \"Data not available for this subscription\"\n        );\n\n        emit Purchase(scriptHash, buyer, mamRoot);\n    }\n\n    /**\n     *@dev The method for shop holder to call after data transfer is finished,\n     * it will set transaction status to FULFILLED\n     */\n    function txFinalize(\n        uint8[] memory sigV,\n        bytes32[] memory sigR,\n        bytes32[] memory sigS,\n        address buyer,\n        bytes32 scriptHash,\n        bytes32 txHash\n    ) public onlyOwner {\n        Marketplace(supervisor).fulfillPurchase(\n            sigV,\n            sigR,\n            sigS,\n            buyer,\n            scriptHash,\n            txHash\n        );\n    }\n\n    /**\n     *@dev Internal function for supervisor to destruct the shop\n     */\n    function kill() public supervised {\n        address payable payAddress = address(uint160(owner()));\n        selfdestruct(payAddress);\n    }\n}\n",
  "sourcePath": "/Users/minfengqi/Documents/PHD/Project/Marketplace/contracts/Shop.sol",
  "compiler": {
    "name": "solc",
    "version": "0.5.2+commit.1df8f40c.Emscripten.clang"
  },
  "schemaVersion": "3.4.3",
  "updatedAt": "2021-08-22T02:54:56.957Z",
  "networkType": "ethereum",
  "devdoc": {
    "methods": {
      "isOwner()": {
        "return": "true if `msg.sender` is the owner of the contract."
      },
      "owner()": {
        "return": "the address of the owner."
      },
      "renounceOwnership()": {
        "details": "Allows the current owner to relinquish control of the contract. It will not be possible to call the functions with the `onlyOwner` modifier anymore."
      },
      "transferOwnership(address)": {
        "details": "Allows the current owner to transfer control of the contract to a newOwner.",
        "params": {
          "newOwner": "The address to transfer ownership to."
        }
      }
    }
  },
  "userdoc": {
    "methods": {
      "getData(uint256)": {
        "notice": "dev Method used to get metadata in data list param index The index of data in the dataList"
      },
      "getDataListSize()": {
        "notice": "dev An api for user to get dataList size, since user cannot get it directly"
      },
      "getSubscribedData(address,string,bytes32)": {
        "notice": "dev An internel function to redeem data by valid subscription"
      },
      "kill()": {
        "notice": "dev Internal function for supervisor to destruct the shop"
      },
      "purchase(address,string,uint256,bytes32)": {
        "notice": "dev An internel purchase function only used by supervisor"
      },
      "renounceOwnership()": {
        "notice": "Renouncing ownership will leave the contract without an owner, thereby removing any functionality that is only available to the owner."
      },
      "setDataAvailability(string,bool)": {
        "notice": "dev Shop holder can use this method to set the availability of data param mamRoot The specified data root param isValid The availability of data"
      },
      "setPurchaseClose()": {
        "notice": "dev Disable buyer to purchase data from shop"
      },
      "setPurchaseOpen()": {
        "notice": "dev Enable buyer to purchase data from shop"
      },
      "setSinglePurchasePrice(uint256)": {
        "notice": "dev Use this method to set single purchase price of the data param price The price of data"
      },
      "setSubscribePrice(uint256)": {
        "notice": "dev Use this method to set subscribe per time unit price of the data param price The price of subscribe per time unit"
      },
      "subscribe(address,uint256,uint256)": {
        "notice": "dev An internel subscribe function only used by supervisor"
      },
      "txFinalize(uint8[],bytes32[],bytes32[],address,bytes32,bytes32)": {
        "notice": "dev The method for shop holder to call after data transfer is finished, it will set transaction status to FULFILLED"
      },
      "updateData(string,string)": {
        "notice": "dev Shop holder can use this method to add new data onto their shop param mamRoot The specified data root param metadata The metadata of the data"
      }
    },
    "notice": "dev A interface for shop holder to set product information and prices in data marketplace"
  }
}